{
  "contractName": "AllowanceStructure",
  "abi": [
    {
      "anonymous": false,
      "inputs": [
        {
          "indexed": true,
          "internalType": "address",
          "name": "_forUser",
          "type": "address"
        },
        {
          "indexed": true,
          "internalType": "address",
          "name": "_ChangedBy",
          "type": "address"
        },
        {
          "indexed": false,
          "internalType": "uint256",
          "name": "_newAllowance",
          "type": "uint256"
        },
        {
          "indexed": false,
          "internalType": "uint256",
          "name": "_oldAllowance",
          "type": "uint256"
        },
        {
          "indexed": false,
          "internalType": "int256",
          "name": "_difference",
          "type": "int256"
        }
      ],
      "name": "AllowanceChange",
      "type": "event"
    },
    {
      "anonymous": false,
      "inputs": [
        {
          "indexed": true,
          "internalType": "address",
          "name": "previousOwner",
          "type": "address"
        },
        {
          "indexed": true,
          "internalType": "address",
          "name": "newOwner",
          "type": "address"
        }
      ],
      "name": "OwnershipTransferred",
      "type": "event"
    },
    {
      "inputs": [
        {
          "internalType": "address",
          "name": "",
          "type": "address"
        }
      ],
      "name": "allowance",
      "outputs": [
        {
          "internalType": "uint256",
          "name": "_allowance",
          "type": "uint256"
        },
        {
          "internalType": "uint256",
          "name": "repeatSec",
          "type": "uint256"
        },
        {
          "internalType": "uint256",
          "name": "_reloadAmount",
          "type": "uint256"
        },
        {
          "internalType": "uint256",
          "name": "i",
          "type": "uint256"
        },
        {
          "internalType": "uint256",
          "name": "j",
          "type": "uint256"
        },
        {
          "internalType": "uint256",
          "name": "initTime",
          "type": "uint256"
        },
        {
          "internalType": "bool",
          "name": "recurrance",
          "type": "bool"
        },
        {
          "internalType": "bool",
          "name": "DailyOrMonthly",
          "type": "bool"
        },
        {
          "internalType": "bool",
          "name": "isDeleted",
          "type": "bool"
        }
      ],
      "stateMutability": "view",
      "type": "function"
    },
    {
      "inputs": [],
      "name": "fri",
      "outputs": [
        {
          "internalType": "uint256",
          "name": "",
          "type": "uint256"
        }
      ],
      "stateMutability": "view",
      "type": "function"
    },
    {
      "inputs": [],
      "name": "mon",
      "outputs": [
        {
          "internalType": "uint256",
          "name": "",
          "type": "uint256"
        }
      ],
      "stateMutability": "view",
      "type": "function"
    },
    {
      "inputs": [],
      "name": "owner",
      "outputs": [
        {
          "internalType": "address",
          "name": "",
          "type": "address"
        }
      ],
      "stateMutability": "view",
      "type": "function"
    },
    {
      "inputs": [
        {
          "internalType": "address",
          "name": "",
          "type": "address"
        }
      ],
      "name": "reload",
      "outputs": [
        {
          "internalType": "uint256",
          "name": "_startYear",
          "type": "uint256"
        },
        {
          "internalType": "uint256",
          "name": "_startMonth",
          "type": "uint256"
        },
        {
          "internalType": "uint256",
          "name": "_startDay",
          "type": "uint256"
        },
        {
          "internalType": "uint256",
          "name": "_startHour",
          "type": "uint256"
        },
        {
          "internalType": "uint256",
          "name": "_startMinute",
          "type": "uint256"
        }
      ],
      "stateMutability": "view",
      "type": "function"
    },
    {
      "inputs": [],
      "name": "renounceOwnership",
      "outputs": [],
      "stateMutability": "nonpayable",
      "type": "function"
    },
    {
      "inputs": [],
      "name": "sat",
      "outputs": [
        {
          "internalType": "uint256",
          "name": "",
          "type": "uint256"
        }
      ],
      "stateMutability": "view",
      "type": "function"
    },
    {
      "inputs": [],
      "name": "sec_per_day",
      "outputs": [
        {
          "internalType": "uint256",
          "name": "",
          "type": "uint256"
        }
      ],
      "stateMutability": "view",
      "type": "function"
    },
    {
      "inputs": [],
      "name": "sec_per_hour",
      "outputs": [
        {
          "internalType": "uint256",
          "name": "",
          "type": "uint256"
        }
      ],
      "stateMutability": "view",
      "type": "function"
    },
    {
      "inputs": [],
      "name": "sec_per_minute",
      "outputs": [
        {
          "internalType": "uint256",
          "name": "",
          "type": "uint256"
        }
      ],
      "stateMutability": "view",
      "type": "function"
    },
    {
      "inputs": [],
      "name": "start_19700101",
      "outputs": [
        {
          "internalType": "int256",
          "name": "",
          "type": "int256"
        }
      ],
      "stateMutability": "view",
      "type": "function"
    },
    {
      "inputs": [],
      "name": "sun",
      "outputs": [
        {
          "internalType": "uint256",
          "name": "",
          "type": "uint256"
        }
      ],
      "stateMutability": "view",
      "type": "function"
    },
    {
      "inputs": [],
      "name": "thu",
      "outputs": [
        {
          "internalType": "uint256",
          "name": "",
          "type": "uint256"
        }
      ],
      "stateMutability": "view",
      "type": "function"
    },
    {
      "inputs": [
        {
          "internalType": "address",
          "name": "newOwner",
          "type": "address"
        }
      ],
      "name": "transferOwnership",
      "outputs": [],
      "stateMutability": "nonpayable",
      "type": "function"
    },
    {
      "inputs": [],
      "name": "tue",
      "outputs": [
        {
          "internalType": "uint256",
          "name": "",
          "type": "uint256"
        }
      ],
      "stateMutability": "view",
      "type": "function"
    },
    {
      "inputs": [],
      "name": "wed",
      "outputs": [
        {
          "internalType": "uint256",
          "name": "",
          "type": "uint256"
        }
      ],
      "stateMutability": "view",
      "type": "function"
    },
    {
      "inputs": [
        {
          "internalType": "uint256",
          "name": "timestamp",
          "type": "uint256"
        }
      ],
      "name": "ts_to_dateTime",
      "outputs": [
        {
          "internalType": "uint256",
          "name": "year",
          "type": "uint256"
        },
        {
          "internalType": "uint256",
          "name": "month",
          "type": "uint256"
        },
        {
          "internalType": "uint256",
          "name": "day",
          "type": "uint256"
        },
        {
          "internalType": "uint256",
          "name": "hour",
          "type": "uint256"
        },
        {
          "internalType": "uint256",
          "name": "minute",
          "type": "uint256"
        },
        {
          "internalType": "uint256",
          "name": "second",
          "type": "uint256"
        }
      ],
      "stateMutability": "pure",
      "type": "function"
    },
    {
      "inputs": [
        {
          "internalType": "uint256",
          "name": "timestamp",
          "type": "uint256"
        }
      ],
      "name": "ts_to_MY",
      "outputs": [
        {
          "internalType": "uint256",
          "name": "year",
          "type": "uint256"
        },
        {
          "internalType": "uint256",
          "name": "month",
          "type": "uint256"
        },
        {
          "internalType": "uint256",
          "name": "day",
          "type": "uint256"
        }
      ],
      "stateMutability": "pure",
      "type": "function"
    },
    {
      "inputs": [
        {
          "internalType": "address",
          "name": "_user",
          "type": "address"
        },
        {
          "internalType": "uint256",
          "name": "amount",
          "type": "uint256"
        },
        {
          "internalType": "uint256",
          "name": "interval",
          "type": "uint256"
        },
        {
          "internalType": "uint256",
          "name": "startDay",
          "type": "uint256"
        },
        {
          "internalType": "uint256",
          "name": "startMonth",
          "type": "uint256"
        },
        {
          "internalType": "uint256",
          "name": "startYear",
          "type": "uint256"
        },
        {
          "internalType": "uint256",
          "name": "startHour",
          "type": "uint256"
        },
        {
          "internalType": "uint256",
          "name": "startMin",
          "type": "uint256"
        }
      ],
      "name": "setMonthly",
      "outputs": [],
      "stateMutability": "nonpayable",
      "type": "function"
    },
    {
      "inputs": [
        {
          "internalType": "address",
          "name": "_user",
          "type": "address"
        },
        {
          "internalType": "uint256",
          "name": "amount",
          "type": "uint256"
        },
        {
          "internalType": "uint256",
          "name": "interval",
          "type": "uint256"
        },
        {
          "internalType": "uint256",
          "name": "startDay",
          "type": "uint256"
        },
        {
          "internalType": "uint256",
          "name": "startMonth",
          "type": "uint256"
        },
        {
          "internalType": "uint256",
          "name": "startYear",
          "type": "uint256"
        },
        {
          "internalType": "uint256",
          "name": "startHour",
          "type": "uint256"
        },
        {
          "internalType": "uint256",
          "name": "startMin",
          "type": "uint256"
        }
      ],
      "name": "setDaily",
      "outputs": [],
      "stateMutability": "nonpayable",
      "type": "function"
    },
    {
      "inputs": [
        {
          "internalType": "address",
          "name": "_user",
          "type": "address"
        },
        {
          "internalType": "uint256",
          "name": "_amount",
          "type": "uint256"
        }
      ],
      "name": "SetAllowance",
      "outputs": [],
      "stateMutability": "nonpayable",
      "type": "function"
    },
    {
      "inputs": [
        {
          "internalType": "address",
          "name": "_user",
          "type": "address"
        },
        {
          "internalType": "uint256",
          "name": "_amount",
          "type": "uint256"
        }
      ],
      "name": "ReloadAllowance",
      "outputs": [],
      "stateMutability": "nonpayable",
      "type": "function"
    },
    {
      "inputs": [
        {
          "internalType": "address",
          "name": "_user",
          "type": "address"
        }
      ],
      "name": "stopReload",
      "outputs": [],
      "stateMutability": "nonpayable",
      "type": "function"
    },
    {
      "inputs": [
        {
          "internalType": "uint256",
          "name": "year",
          "type": "uint256"
        },
        {
          "internalType": "uint256",
          "name": "month",
          "type": "uint256"
        },
        {
          "internalType": "uint256",
          "name": "day",
          "type": "uint256"
        },
        {
          "internalType": "uint256",
          "name": "hour",
          "type": "uint256"
        },
        {
          "internalType": "uint256",
          "name": "minute",
          "type": "uint256"
        }
      ],
      "name": "diffSeconds",
      "outputs": [
        {
          "internalType": "uint256",
          "name": "_seconds",
          "type": "uint256"
        }
      ],
      "stateMutability": "view",
      "type": "function"
    },
    {
      "inputs": [
        {
          "internalType": "address",
          "name": "_user",
          "type": "address"
        }
      ],
      "name": "getMap",
      "outputs": [
        {
          "internalType": "uint256",
          "name": "startYear",
          "type": "uint256"
        },
        {
          "internalType": "uint256",
          "name": "startMonth",
          "type": "uint256"
        },
        {
          "internalType": "uint256",
          "name": "startDay",
          "type": "uint256"
        },
        {
          "internalType": "uint256",
          "name": "startHour",
          "type": "uint256"
        },
        {
          "internalType": "uint256",
          "name": "startMinute",
          "type": "uint256"
        },
        {
          "internalType": "uint256",
          "name": "interval",
          "type": "uint256"
        },
        {
          "internalType": "string",
          "name": "period",
          "type": "string"
        },
        {
          "internalType": "uint256",
          "name": "reloadAmount",
          "type": "uint256"
        },
        {
          "internalType": "bool",
          "name": "deleteStatus",
          "type": "bool"
        },
        {
          "internalType": "uint256",
          "name": "repeatSeconds",
          "type": "uint256"
        }
      ],
      "stateMutability": "view",
      "type": "function"
    }
  ],
  "bytecode": "0x6080604052670de0b6b3a76400006004553480156200001d57600080fd5b506200003e620000326200004460201b60201c565b6200004c60201b60201c565b62000110565b600033905090565b60008060009054906101000a900473ffffffffffffffffffffffffffffffffffffffff169050816000806101000a81548173ffffffffffffffffffffffffffffffffffffffff021916908373ffffffffffffffffffffffffffffffffffffffff1602179055508173ffffffffffffffffffffffffffffffffffffffff168173ffffffffffffffffffffffffffffffffffffffff167f8be0079c531659141344cd1fd0a4f28419497f9722a3daafe3b4186f6b6457e060405160405180910390a35050565b6137d680620001206000396000f3fe608060405234801561001057600080fd5b50600436106101735760003560e01c806368aee9e8116100de5780638da5cb5b11610097578063cff6220a11610071578063cff6220a14610444578063d9b002aa14610476578063e7c6eade14610494578063f2fde38b146104b257610173565b80638da5cb5b146103ea578063a3108ca014610408578063a789042e1461042657610173565b806368aee9e814610321578063715018a61461033f5780637900dfc614610349578063805760e6146103795780638c6f4e8b146103975780638cf705fd146103b557610173565b80633339b3af116101305780633339b3af14610257578063341ad5a9146102755780633bfe7467146102935780633e5beab9146102af5780633e7279a3146102e757806366073b9f1461030357610173565b80631038b8d114610178578063154c57121461019457806317b5bb32146101b05780631947bd2f146101ce57806321f443771461020757806324e0ac2c1461023b575b600080fd5b610192600480360381019061018d91906127ba565b6104ce565b005b6101ae60048036038101906101a99190612870565b610a46565b005b6101b86110a1565b6040516101c591906128bf565b60405180910390f35b6101e860048036038101906101e391906128da565b6110a6565b6040516101fe9a999897969594939291906129bb565b60405180910390f35b610221600480360381019061021c91906128da565b6114a4565b604051610232959493929190612a5e565b60405180910390f35b610255600480360381019061025091906127ba565b6114da565b005b61025f6119e9565b60405161026c91906128bf565b60405180910390f35b61027d6119ee565b60405161028a91906128bf565b60405180910390f35b6102ad60048036038101906102a891906128da565b6119f3565b005b6102c960048036038101906102c491906128da565b611a50565b6040516102de99989796959493929190612ab1565b60405180910390f35b61030160048036038101906102fc9190612870565b611ac5565b005b61030b611c96565b6040516103189190612b57565b60405180910390f35b610329611c9d565b60405161033691906128bf565b60405180910390f35b610347611ca2565b005b610363600480360381019061035e9190612b72565b611d2a565b60405161037091906128bf565b60405180910390f35b610381611db1565b60405161038e91906128bf565b60405180910390f35b61039f611db7565b6040516103ac91906128bf565b60405180910390f35b6103cf60048036038101906103ca9190612bed565b611dbe565b6040516103e196959493929190612c1a565b60405180910390f35b6103f2611e96565b6040516103ff9190612c8a565b60405180910390f35b610410611ebf565b60405161041d91906128bf565b60405180910390f35b61042e611ec4565b60405161043b91906128bf565b60405180910390f35b61045e60048036038101906104599190612bed565b611ec9565b60405161046d93929190612ca5565b60405180910390f35b61047e611f49565b60405161048b91906128bf565b60405180910390f35b61049c611f4e565b6040516104a991906128bf565b60405180910390f35b6104cc60048036038101906104c791906128da565b611f53565b005b6104d661204b565b73ffffffffffffffffffffffffffffffffffffffff166104f4611e96565b73ffffffffffffffffffffffffffffffffffffffff161461054a576040517f08c379a000000000000000000000000000000000000000000000000000000000815260040161054190612d28565b60405180910390fd5b60006005836105599190612d77565b905061056a84868884866000612053565b600160008b73ffffffffffffffffffffffffffffffffffffffff1673ffffffffffffffffffffffffffffffffffffffff1681526020019081526020016000206005018190555042600160008b73ffffffffffffffffffffffffffffffffffffffff1673ffffffffffffffffffffffffffffffffffffffff168152602001908152602001600020600501541015610635576040517f08c379a000000000000000000000000000000000000000000000000000000000815260040161062c90612e3f565b60405180910390fd5b87600160008b73ffffffffffffffffffffffffffffffffffffffff1673ffffffffffffffffffffffffffffffffffffffff1681526020019081526020016000206002018190555083600260008b73ffffffffffffffffffffffffffffffffffffffff1673ffffffffffffffffffffffffffffffffffffffff1681526020019081526020016000206000018190555084600260008b73ffffffffffffffffffffffffffffffffffffffff1673ffffffffffffffffffffffffffffffffffffffff1681526020019081526020016000206001018190555085600260008b73ffffffffffffffffffffffffffffffffffffffff1673ffffffffffffffffffffffffffffffffffffffff1681526020019081526020016000206002018190555082600260008b73ffffffffffffffffffffffffffffffffffffffff1673ffffffffffffffffffffffffffffffffffffffff1681526020019081526020016000206003018190555081600260008b73ffffffffffffffffffffffffffffffffffffffff1673ffffffffffffffffffffffffffffffffffffffff168152602001908152602001600020600401819055506000600160008b73ffffffffffffffffffffffffffffffffffffffff1673ffffffffffffffffffffffffffffffffffffffff16815260200190815260200160002060060160016101000a81548160ff02191690831515021790555060018060008b73ffffffffffffffffffffffffffffffffffffffff1673ffffffffffffffffffffffffffffffffffffffff16815260200190815260200160002060060160006101000a81548160ff02191690831515021790555086600160008b73ffffffffffffffffffffffffffffffffffffffff1673ffffffffffffffffffffffffffffffffffffffff168152602001908152602001600020600301819055506000600160008b73ffffffffffffffffffffffffffffffffffffffff1673ffffffffffffffffffffffffffffffffffffffff168152602001908152602001600020600401819055506000600160008b73ffffffffffffffffffffffffffffffffffffffff1673ffffffffffffffffffffffffffffffffffffffff16815260200190815260200160002060060160026101000a81548160ff02191690831515021790555060008060006109ce600160008e73ffffffffffffffffffffffffffffffffffffffff1673ffffffffffffffffffffffffffffffffffffffff16815260200190815260200160002060050154611ec9565b92509250925060006109e084846120b4565b905062015180816109f19190612e5f565b600160008f73ffffffffffffffffffffffffffffffffffffffff1673ffffffffffffffffffffffffffffffffffffffff1681526020019081526020016000206001018190555050505050505050505050505050565b60011515600160008473ffffffffffffffffffffffffffffffffffffffff1673ffffffffffffffffffffffffffffffffffffffff16815260200190815260200160002060060160009054906101000a900460ff161515148015610afc575060001515600160008473ffffffffffffffffffffffffffffffffffffffff1673ffffffffffffffffffffffffffffffffffffffff16815260200190815260200160002060060160029054906101000a900460ff161515145b610b3b576040517f08c379a0000000000000000000000000000000000000000000000000000000008152600401610b3290612f2b565b60405180910390fd5b80600160008473ffffffffffffffffffffffffffffffffffffffff1673ffffffffffffffffffffffffffffffffffffffff168152602001908152602001600020600201541015610bc0576040517f08c379a0000000000000000000000000000000000000000000000000000000008152600401610bb790612fe3565b60405180910390fd5b60011515600160008473ffffffffffffffffffffffffffffffffffffffff1673ffffffffffffffffffffffffffffffffffffffff16815260200190815260200160002060060160019054906101000a900460ff1615151415610e21576000610cf9600160008573ffffffffffffffffffffffffffffffffffffffff1673ffffffffffffffffffffffffffffffffffffffff16815260200190815260200160002060050154600160008673ffffffffffffffffffffffffffffffffffffffff1673ffffffffffffffffffffffffffffffffffffffff16815260200190815260200160002060040154600160008773ffffffffffffffffffffffffffffffffffffffff1673ffffffffffffffffffffffffffffffffffffffff16815260200190815260200160002060030154610cf49190612e5f565b61213f565b90506000610e106005610d0c9190612e5f565b82610d179190613003565b9050607842610d269190612d77565b811115610d68576040517f08c379a0000000000000000000000000000000000000000000000000000000008152600401610d5f90613083565b60405180910390fd5b82600160008673ffffffffffffffffffffffffffffffffffffffff1673ffffffffffffffffffffffffffffffffffffffff1681526020019081526020016000206000016000828254610dba9190612d77565b9250508190555060018060008673ffffffffffffffffffffffffffffffffffffffff1673ffffffffffffffffffffffffffffffffffffffff1681526020019081526020016000206004016000828254610e139190612d77565b92505081905550505061109d565b6000610efe600160008573ffffffffffffffffffffffffffffffffffffffff1673ffffffffffffffffffffffffffffffffffffffff16815260200190815260200160002060050154600160008673ffffffffffffffffffffffffffffffffffffffff1673ffffffffffffffffffffffffffffffffffffffff16815260200190815260200160002060040154600160008773ffffffffffffffffffffffffffffffffffffffff1673ffffffffffffffffffffffffffffffffffffffff16815260200190815260200160002060030154610ef99190612e5f565b6121a6565b90506000610e106005610f119190612e5f565b82610f1c9190613003565b9050607842610f2b9190612d77565b811115610f6d576040517f08c379a0000000000000000000000000000000000000000000000000000000008152600401610f6490613115565b60405180910390fd5b82600160008673ffffffffffffffffffffffffffffffffffffffff1673ffffffffffffffffffffffffffffffffffffffff1681526020019081526020016000206000016000828254610fbf9190612d77565b9250508190555060018060008673ffffffffffffffffffffffffffffffffffffffff1673ffffffffffffffffffffffffffffffffffffffff16815260200190815260200160002060040160008282546110189190612d77565b92505081905550600080600061102d84611ec9565b925092509250600061103f84846120b4565b905062015180816110509190612e5f565b600160008a73ffffffffffffffffffffffffffffffffffffffff1673ffffffffffffffffffffffffffffffffffffffff168152602001908152602001600020600101819055505050505050505b5050565b600781565b60008060008060008060606000806000801515600160008d73ffffffffffffffffffffffffffffffffffffffff1673ffffffffffffffffffffffffffffffffffffffff16815260200190815260200160002060060160029054906101000a900460ff1615151461114b576040517f08c379a0000000000000000000000000000000000000000000000000000000008152600401611142906131cd565b60405180910390fd5b600260008c73ffffffffffffffffffffffffffffffffffffffff1673ffffffffffffffffffffffffffffffffffffffff168152602001908152602001600020600001549950600260008c73ffffffffffffffffffffffffffffffffffffffff1673ffffffffffffffffffffffffffffffffffffffff168152602001908152602001600020600101549850600260008c73ffffffffffffffffffffffffffffffffffffffff1673ffffffffffffffffffffffffffffffffffffffff168152602001908152602001600020600201549750600260008c73ffffffffffffffffffffffffffffffffffffffff1673ffffffffffffffffffffffffffffffffffffffff168152602001908152602001600020600301549650600260008c73ffffffffffffffffffffffffffffffffffffffff1673ffffffffffffffffffffffffffffffffffffffff168152602001908152602001600020600401549550600160008c73ffffffffffffffffffffffffffffffffffffffff1673ffffffffffffffffffffffffffffffffffffffff16815260200190815260200160002060030154945060011515600160008d73ffffffffffffffffffffffffffffffffffffffff1673ffffffffffffffffffffffffffffffffffffffff16815260200190815260200160002060060160019054906101000a900460ff1615151415611382576040518060400160405280600681526020017f446179287329000000000000000000000000000000000000000000000000000081525093506113bb565b6040518060400160405280600881526020017f4d6f6e746828732900000000000000000000000000000000000000000000000081525093505b600160008c73ffffffffffffffffffffffffffffffffffffffff1673ffffffffffffffffffffffffffffffffffffffff168152602001908152602001600020600201549250600160008c73ffffffffffffffffffffffffffffffffffffffff1673ffffffffffffffffffffffffffffffffffffffff16815260200190815260200160002060060160029054906101000a900460ff169150600160008c73ffffffffffffffffffffffffffffffffffffffff1673ffffffffffffffffffffffffffffffffffffffff1681526020019081526020016000206001015490509193959799509193959799565b60026020528060005260406000206000915090508060000154908060010154908060020154908060030154908060040154905085565b6114e261204b565b73ffffffffffffffffffffffffffffffffffffffff16611500611e96565b73ffffffffffffffffffffffffffffffffffffffff1614611556576040517f08c379a000000000000000000000000000000000000000000000000000000000815260040161154d90612d28565b60405180910390fd5b60006005836115659190612d77565b905061157684868884866000612053565b600160008b73ffffffffffffffffffffffffffffffffffffffff1673ffffffffffffffffffffffffffffffffffffffff1681526020019081526020016000206005018190555042600160008b73ffffffffffffffffffffffffffffffffffffffff1673ffffffffffffffffffffffffffffffffffffffff168152602001908152602001600020600501541015611641576040517f08c379a000000000000000000000000000000000000000000000000000000000815260040161163890612e3f565b60405180910390fd5b87600160008b73ffffffffffffffffffffffffffffffffffffffff1673ffffffffffffffffffffffffffffffffffffffff1681526020019081526020016000206002018190555083600260008b73ffffffffffffffffffffffffffffffffffffffff1673ffffffffffffffffffffffffffffffffffffffff1681526020019081526020016000206000018190555084600260008b73ffffffffffffffffffffffffffffffffffffffff1673ffffffffffffffffffffffffffffffffffffffff1681526020019081526020016000206001018190555085600260008b73ffffffffffffffffffffffffffffffffffffffff1673ffffffffffffffffffffffffffffffffffffffff1681526020019081526020016000206002018190555082600260008b73ffffffffffffffffffffffffffffffffffffffff1673ffffffffffffffffffffffffffffffffffffffff1681526020019081526020016000206003018190555081600260008b73ffffffffffffffffffffffffffffffffffffffff1673ffffffffffffffffffffffffffffffffffffffff1681526020019081526020016000206004018190555060018060008b73ffffffffffffffffffffffffffffffffffffffff1673ffffffffffffffffffffffffffffffffffffffff16815260200190815260200160002060060160016101000a81548160ff02191690831515021790555060018060008b73ffffffffffffffffffffffffffffffffffffffff1673ffffffffffffffffffffffffffffffffffffffff16815260200190815260200160002060060160006101000a81548160ff02191690831515021790555086600160008b73ffffffffffffffffffffffffffffffffffffffff1673ffffffffffffffffffffffffffffffffffffffff168152602001908152602001600020600301819055506000600160008b73ffffffffffffffffffffffffffffffffffffffff1673ffffffffffffffffffffffffffffffffffffffff168152602001908152602001600020600401819055506000600160008b73ffffffffffffffffffffffffffffffffffffffff1673ffffffffffffffffffffffffffffffffffffffff16815260200190815260200160002060060160026101000a81548160ff02191690831515021790555062015180876119989190612e5f565b600160008b73ffffffffffffffffffffffffffffffffffffffff1673ffffffffffffffffffffffffffffffffffffffff16815260200190815260200160002060010181905550505050505050505050565b600581565b600681565b60018060008373ffffffffffffffffffffffffffffffffffffffff1673ffffffffffffffffffffffffffffffffffffffff16815260200190815260200160002060060160026101000a81548160ff02191690831515021790555050565b60016020528060005260406000206000915090508060000154908060010154908060020154908060030154908060040154908060050154908060060160009054906101000a900460ff16908060060160019054906101000a900460ff16908060060160029054906101000a900460ff16905089565b611acd61204b565b73ffffffffffffffffffffffffffffffffffffffff16611aeb611e96565b73ffffffffffffffffffffffffffffffffffffffff1614611b41576040517f08c379a0000000000000000000000000000000000000000000000000000000008152600401611b3890612d28565b60405180910390fd5b80600160008473ffffffffffffffffffffffffffffffffffffffff1673ffffffffffffffffffffffffffffffffffffffff1681526020019081526020016000206000016000828254611b939190612d77565b925050819055503373ffffffffffffffffffffffffffffffffffffffff168273ffffffffffffffffffffffffffffffffffffffff167fc01efbe04c5ee8fdaf278af7f682dbebe6c0c2b564f552548d5a88b2b8de7e0e83600160008773ffffffffffffffffffffffffffffffffffffffff1673ffffffffffffffffffffffffffffffffffffffff16815260200190815260200160002060000154600160008873ffffffffffffffffffffffffffffffffffffffff1673ffffffffffffffffffffffffffffffffffffffff1681526020019081526020016000206000015486611c7b91906131ed565b604051611c8a93929190613281565b60405180910390a35050565b62253d8c81565b600381565b611caa61204b565b73ffffffffffffffffffffffffffffffffffffffff16611cc8611e96565b73ffffffffffffffffffffffffffffffffffffffff1614611d1e576040517f08c379a0000000000000000000000000000000000000000000000000000000008152600401611d1590612d28565b60405180910390fd5b611d2860006122bf565b565b6000804290506000600585611d3f9190612d77565b90506000611d5289898985896000612053565b905080831115611d97576040517f08c379a0000000000000000000000000000000000000000000000000000000008152600401611d8e90613304565b60405180910390fd5b8281611da39190613003565b935050505095945050505050565b610e1081565b6201518081565b600080600080600080611dde6201518088611dd99190613353565b612383565b80965081975082985050505060006201518088611dfb9190613384565b9050610e1081611e0b9190613353565b9350610e1081611e1b9190613384565b9050603c81611e2a9190613353565b9250603c81611e399190613384565b915060011515611e4a888888612522565b151514611e8c576040517f08c379a0000000000000000000000000000000000000000000000000000000008152600401611e8390613401565b60405180910390fd5b5091939550919395565b60008060009054906101000a900473ffffffffffffffffffffffffffffffffffffffff16905090565b600281565b603c81565b6000806000611ee56201518085611ee09190613353565b612383565b80935081945082955050505060011515611f00848484612522565b151514611f42576040517f08c379a0000000000000000000000000000000000000000000000000000000008152600401611f3990613401565b60405180910390fd5b9193909250565b600481565b600181565b611f5b61204b565b73ffffffffffffffffffffffffffffffffffffffff16611f79611e96565b73ffffffffffffffffffffffffffffffffffffffff1614611fcf576040517f08c379a0000000000000000000000000000000000000000000000000000000008152600401611fc690612d28565b60405180910390fd5b600073ffffffffffffffffffffffffffffffffffffffff168173ffffffffffffffffffffffffffffffffffffffff16141561203f576040517f08c379a000000000000000000000000000000000000000000000000000000000815260040161203690613493565b60405180910390fd5b612048816122bf565b50565b600033905090565b600081603c846120639190612e5f565b610e10866120719190612e5f565b620151806120808b8b8b612579565b61208a9190612e5f565b6120949190612d77565b61209e9190612d77565b6120a89190612d77565b90509695505050505050565b600060018214806120c55750600382145b806120d05750600582145b806120db5750600782145b806120e65750600882145b806120f15750600a82145b806120fc5750600c82145b1561210a57601f9050612139565b6002821461211b57601e9050612138565b612124836126d8565b61212f57601c612132565b601d5b60ff1690505b5b92915050565b600062015180826121509190612e5f565b8361215b9190612d77565b9050828110156121a0576040517f08c379a0000000000000000000000000000000000000000000000000000000008152600401612197906134ff565b60405180910390fd5b92915050565b6000806000806121c362015180876121be9190613353565b612383565b92509250925084826121d59190612d77565b9150600c6001836121e69190613003565b6121f09190613353565b836121fb9190612d77565b92506001600c60018461220e9190613003565b6122189190613384565b6122229190612d77565b9150600061223084846120b4565b90508082111561223e578091505b620151808761224d9190613384565b6201518061225c868686612579565b6122669190612e5f565b6122709190612d77565b9450868510156122b5576040517f08c379a00000000000000000000000000000000000000000000000000000000081526004016122ac9061356b565b60405180910390fd5b5050505092915050565b60008060009054906101000a900473ffffffffffffffffffffffffffffffffffffffff169050816000806101000a81548173ffffffffffffffffffffffffffffffffffffffff021916908373ffffffffffffffffffffffffffffffffffffffff1602179055508173ffffffffffffffffffffffffffffffffffffffff168173ffffffffffffffffffffffffffffffffffffffff167f8be0079c531659141344cd1fd0a4f28419497f9722a3daafe3b4186f6b6457e060405160405180910390a35050565b600080600080849050600062253d8c62010bd9836123a1919061358b565b6123ab919061358b565b9050600062023ab18260046123c0919061361f565b6123ca9190613736565b9050600460038262023ab16123df919061361f565b6123e9919061358b565b6123f39190613736565b826123fe91906131ed565b9150600062164b09600184612413919061358b565b610fa0612420919061361f565b61242a9190613736565b9050601f6004826105b561243e919061361f565b6124489190613736565b8461245391906131ed565b61245d919061358b565b9250600061098f846050612471919061361f565b61247b9190613736565b9050600060508261098f61248f919061361f565b6124999190613736565b856124a491906131ed565b9050600b826124b39190613736565b945084600c6124c2919061361f565b6002836124cf919061358b565b6124d991906131ed565b915084836031866124ea91906131ed565b60646124f6919061361f565b612500919061358b565b61250a919061358b565b92508298508197508096505050505050509193909250565b60006107b284101580156125365750600083115b80156125435750600c8311155b1561257257600061255485856120b4565b90506000831180156125665750808311155b1561257057600191505b505b9392505050565b60006107b284101561258a57600080fd5b600084905060008490506000849050600062253d8c60046064600c600e876125b291906131ed565b6125bc9190613736565b611324886125ca919061358b565b6125d4919061358b565b6125de9190613736565b60036125ea919061361f565b6125f49190613736565b600c80600c600e8861260691906131ed565b6126109190613736565b61261a919061361f565b60028761262791906131ed565b61263191906131ed565b61016f61263e919061361f565b6126489190613736565b6004600c600e8861265991906131ed565b6126639190613736565b6112c089612671919061358b565b61267b919061358b565b6105b5612688919061361f565b6126929190613736565b617d4b866126a091906131ed565b6126aa919061358b565b6126b4919061358b565b6126be91906131ed565b6126c891906131ed565b9050809450505050509392505050565b6000806004836126e89190613384565b148015612702575060006064836126ff9190613384565b14155b8061271a57506000610190836127189190613384565b145b9050919050565b600080fd5b600073ffffffffffffffffffffffffffffffffffffffff82169050919050565b600061275182612726565b9050919050565b61276181612746565b811461276c57600080fd5b50565b60008135905061277e81612758565b92915050565b6000819050919050565b61279781612784565b81146127a257600080fd5b50565b6000813590506127b48161278e565b92915050565b600080600080600080600080610100898b0312156127db576127da612721565b5b60006127e98b828c0161276f565b98505060206127fa8b828c016127a5565b975050604061280b8b828c016127a5565b965050606061281c8b828c016127a5565b955050608061282d8b828c016127a5565b94505060a061283e8b828c016127a5565b93505060c061284f8b828c016127a5565b92505060e06128608b828c016127a5565b9150509295985092959890939650565b6000806040838503121561288757612886612721565b5b60006128958582860161276f565b92505060206128a6858286016127a5565b9150509250929050565b6128b981612784565b82525050565b60006020820190506128d460008301846128b0565b92915050565b6000602082840312156128f0576128ef612721565b5b60006128fe8482850161276f565b91505092915050565b600081519050919050565b600082825260208201905092915050565b60005b83811015612941578082015181840152602081019050612926565b83811115612950576000848401525b50505050565b6000601f19601f8301169050919050565b600061297282612907565b61297c8185612912565b935061298c818560208601612923565b61299581612956565b840191505092915050565b60008115159050919050565b6129b5816129a0565b82525050565b6000610140820190506129d1600083018d6128b0565b6129de602083018c6128b0565b6129eb604083018b6128b0565b6129f8606083018a6128b0565b612a0560808301896128b0565b612a1260a08301886128b0565b81810360c0830152612a248187612967565b9050612a3360e08301866128b0565b612a416101008301856129ac565b612a4f6101208301846128b0565b9b9a5050505050505050505050565b600060a082019050612a7360008301886128b0565b612a8060208301876128b0565b612a8d60408301866128b0565b612a9a60608301856128b0565b612aa760808301846128b0565b9695505050505050565b600061012082019050612ac7600083018c6128b0565b612ad4602083018b6128b0565b612ae1604083018a6128b0565b612aee60608301896128b0565b612afb60808301886128b0565b612b0860a08301876128b0565b612b1560c08301866129ac565b612b2260e08301856129ac565b612b306101008301846129ac565b9a9950505050505050505050565b6000819050919050565b612b5181612b3e565b82525050565b6000602082019050612b6c6000830184612b48565b92915050565b600080600080600060a08688031215612b8e57612b8d612721565b5b6000612b9c888289016127a5565b9550506020612bad888289016127a5565b9450506040612bbe888289016127a5565b9350506060612bcf888289016127a5565b9250506080612be0888289016127a5565b9150509295509295909350565b600060208284031215612c0357612c02612721565b5b6000612c11848285016127a5565b91505092915050565b600060c082019050612c2f60008301896128b0565b612c3c60208301886128b0565b612c4960408301876128b0565b612c5660608301866128b0565b612c6360808301856128b0565b612c7060a08301846128b0565b979650505050505050565b612c8481612746565b82525050565b6000602082019050612c9f6000830184612c7b565b92915050565b6000606082019050612cba60008301866128b0565b612cc760208301856128b0565b612cd460408301846128b0565b949350505050565b7f4f776e61626c653a2063616c6c6572206973206e6f7420746865206f776e6572600082015250565b6000612d12602083612912565b9150612d1d82612cdc565b602082019050919050565b60006020820190508181036000830152612d4181612d05565b9050919050565b7f4e487b7100000000000000000000000000000000000000000000000000000000600052601160045260246000fd5b6000612d8282612784565b9150612d8d83612784565b9250827fffffffffffffffffffffffffffffffffffffffffffffffffffffffffffffffff03821115612dc257612dc1612d48565b5b828201905092915050565b7f546865206461746520736574206973206e6f742066617220656e6f756768206960008201527f6e746f2074686520667574757265000000000000000000000000000000000000602082015250565b6000612e29602e83612912565b9150612e3482612dcd565b604082019050919050565b60006020820190508181036000830152612e5881612e1c565b9050919050565b6000612e6a82612784565b9150612e7583612784565b9250817fffffffffffffffffffffffffffffffffffffffffffffffffffffffffffffffff0483118215151615612eae57612ead612d48565b5b828202905092915050565b7f726563757272696e6720616c6c6f77616e6365206973206e6f7420616374697660008201527f6500000000000000000000000000000000000000000000000000000000000000602082015250565b6000612f15602183612912565b9150612f2082612eb9565b604082019050919050565b60006020820190508181036000830152612f4481612f08565b9050919050565b7f596f752061726520747279696e6720746f2072656c6f616420616e20616d6f7560008201527f6e742067726561746572207468616e207468617420736574206279207468652060208201527f6f776e6572000000000000000000000000000000000000000000000000000000604082015250565b6000612fcd604583612912565b9150612fd882612f4b565b606082019050919050565b60006020820190508181036000830152612ffc81612fc0565b9050919050565b600061300e82612784565b915061301983612784565b92508282101561302c5761302b612d48565b5b828203905092915050565b7f497420697320746f6f206561726c790000000000000000000000000000000000600082015250565b600061306d600f83612912565b915061307882613037565b602082019050919050565b6000602082019050818103600083015261309c81613060565b9050919050565b7f497420697320746f6f206561726c7920746f2072656c6f61642074686520616c60008201527f6c6f77616e636500000000000000000000000000000000000000000000000000602082015250565b60006130ff602783612912565b915061310a826130a3565b604082019050919050565b6000602082019050818103600083015261312e816130f2565b9050919050565b7f546865206d6f737420726563656e7420726563757272696e6720616c6c6f776160008201527f6e63652077617320206f7220686173206e6f74206265656e206372656174656460208201527f2079657400000000000000000000000000000000000000000000000000000000604082015250565b60006131b7604483612912565b91506131c282613135565b606082019050919050565b600060208201905081810360008301526131e6816131aa565b9050919050565b60006131f882612b3e565b915061320383612b3e565b9250827f80000000000000000000000000000000000000000000000000000000000000000182126000841215161561323e5761323d612d48565b5b827f7fffffffffffffffffffffffffffffffffffffffffffffffffffffffffffffff01821360008412161561327657613275612d48565b5b828203905092915050565b600060608201905061329660008301866128b0565b6132a360208301856128b0565b6132b06040830184612b48565b949350505050565b7f5468652064617465206973206e6f7420696e2074686520667574757265000000600082015250565b60006132ee601d83612912565b91506132f9826132b8565b602082019050919050565b6000602082019050818103600083015261331d816132e1565b9050919050565b7f4e487b7100000000000000000000000000000000000000000000000000000000600052601260045260246000fd5b600061335e82612784565b915061336983612784565b92508261337957613378613324565b5b828204905092915050565b600061338f82612784565b915061339a83612784565b9250826133aa576133a9613324565b5b828206905092915050565b7f4461746520636f6e76657273696f6e206661696c656400000000000000000000600082015250565b60006133eb601683612912565b91506133f6826133b5565b602082019050919050565b6000602082019050818103600083015261341a816133de565b9050919050565b7f4f776e61626c653a206e6577206f776e657220697320746865207a65726f206160008201527f6464726573730000000000000000000000000000000000000000000000000000602082015250565b600061347d602683612912565b915061348882613421565b604082019050919050565b600060208201905081810360008301526134ac81613470565b9050919050565b7f41646420646179732066756e6374696f6e206661696c65640000000000000000600082015250565b60006134e9601883612912565b91506134f4826134b3565b602082019050919050565b60006020820190508181036000830152613518816134dc565b9050919050565b7f416464206d6f6e7468732066756e6374696f6e206661696c6564000000000000600082015250565b6000613555601a83612912565b91506135608261351f565b602082019050919050565b6000602082019050818103600083015261358481613548565b9050919050565b600061359682612b3e565b91506135a183612b3e565b9250817f7fffffffffffffffffffffffffffffffffffffffffffffffffffffffffffffff038313600083121516156135dc576135db612d48565b5b817f800000000000000000000000000000000000000000000000000000000000000003831260008312161561361457613613612d48565b5b828201905092915050565b600061362a82612b3e565b915061363583612b3e565b9250827f7fffffffffffffffffffffffffffffffffffffffffffffffffffffffffffffff048211600084136000841316161561367457613673612d48565b5b817f800000000000000000000000000000000000000000000000000000000000000005831260008412600084131616156136b1576136b0612d48565b5b827f800000000000000000000000000000000000000000000000000000000000000005821260008413600084121616156136ee576136ed612d48565b5b827f7fffffffffffffffffffffffffffffffffffffffffffffffffffffffffffffff058212600084126000841216161561372b5761372a612d48565b5b828202905092915050565b600061374182612b3e565b915061374c83612b3e565b92508261375c5761375b613324565b5b600160000383147f80000000000000000000000000000000000000000000000000000000000000008314161561379557613794612d48565b5b82820590509291505056fea264697066735822122072155482dba1b2521e6444ec4a9cfb6ddbd3a37cab868685abf8772f9280a5a864736f6c63430008090033",
  "immutableReferences": {},
  "source": "pragma solidity 0.8.9;\r\n\r\nimport \"@openzeppelin/contracts/access/Ownable.sol\";\r\ncontract AllowanceStructure is Ownable {\r\n\r\n    event AllowanceChange(address indexed _forUser, address indexed _ChangedBy, uint _newAllowance, uint _oldAllowance ,int _difference);\r\n   struct userData {\r\n        uint _allowance;\r\n        uint repeatSec;\r\n        uint _reloadAmount;\r\n        uint i; //reload interval\r\n        uint j;\r\n        uint initTime;\r\n        bool recurrance;\r\n        bool DailyOrMonthly; //true=daily, false=monthly\r\n        bool isDeleted; //used to delete the recurring allowance\r\n    }\r\n\r\n   struct dateTimeData {\r\n        uint _startYear;\r\n        uint _startMonth;\r\n        uint _startDay;\r\n        uint _startHour;\r\n        uint _startMinute;\r\n   }\r\n\r\n    mapping(address => userData) public allowance;\r\n    mapping(address => dateTimeData) public reload;\r\n    int _x;\r\n    uint toWei = 1e18;\r\n\r\n    modifier Permissions(uint _amount, address _user) {\r\n        require(allowance[_user]._allowance >= _amount, \"The amount exceeds your allowance.\");\r\n        _;\r\n    }\r\n\r\n    //Payment Scheduling:\r\n    uint public constant sec_per_day = 24 * 60 * 60;\r\n    uint public constant sec_per_hour = 60 * 60;\r\n    uint public constant sec_per_minute = 60;\r\n    int public constant start_19700101 = 2440588;\r\n    \r\n    uint public constant mon = 1;\r\n    uint public constant tue = 2;\r\n    uint public constant wed = 3;\r\n    uint public constant thu = 4;\r\n    uint public constant fri = 5;\r\n    uint public constant sat = 6;\r\n    uint public constant sun = 7;\r\n\r\n//CREDIT FOR DATE TIME CONVERSIONS TO BOKKYPOOBAH ON GITHUB: https://github.com/bokkypoobah/BokkyPooBahsDateTimeLibrary\r\n     // ------------------------------------------------------------------------\r\n    // Calculate year/month/day from the number of days since 1970/01/01 using\r\n    // the date conversion algorithm from\r\n    //   http://aa.usno.navy.mil/faq/docs/JD_Formula.php\r\n    // and adding the offset 2440588 so that 1970/01/01 is day 0\r\n    //\r\n    // int L = days + 68569 + offset\r\n    // int N = 4 * L / 146097\r\n    // L = L - (146097 * N + 3) / 4\r\n    // year = 4000 * (L + 1) / 1461001\r\n    // L = L - 1461 * year / 4 + 31\r\n    // month = 80 * L / 2447\r\n    // dd = L - 2447 * month / 80\r\n    // L = month / 11\r\n    // month = month + 2 - 12 * L\r\n    // year = 100 * (N - 49) + year + L\r\n    // ------------------------------------------------------------------------\r\n    \r\n    function _daysFromDate(uint year, uint month, uint day) internal pure returns (uint _days) {\r\n        require(year >= 1970);\r\n        int _year = int(year);\r\n        int _month = int(month);\r\n        int _day = int(day);\r\n\r\n        int __days = _day\r\n          - 32075\r\n          + 1461 * (_year + 4800 + (_month - 14) / 12) / 4\r\n          + 367 * (_month - 2 - (_month - 14) / 12 * 12) / 12\r\n          - 3 * ((_year + 4900 + (_month - 14) / 12) / 100) / 4\r\n          - start_19700101;\r\n\r\n        _days = uint(__days);\r\n    }\r\n    \r\n    function _daysToDate(uint _days) internal pure returns (uint year, uint month, uint day) {\r\n        int __days = int(_days);\r\n\r\n        int L = __days + 68569 + start_19700101;\r\n        int N = 4 * L / 146097;\r\n        L = L - (146097 * N + 3) / 4;\r\n        int _year = 4000 * (L + 1) / 1461001;\r\n        L = L - 1461 * _year / 4 + 31;\r\n        int _month = 80 * L / 2447;\r\n        int _day = L - 2447 * _month / 80;\r\n        L = _month / 11;\r\n        _month = _month + 2 - 12 * L;\r\n        _year = 100 * (N - 49) + _year + L;\r\n\r\n        year = uint(_year);\r\n        month = uint(_month);\r\n        day = uint(_day);\r\n    }\r\n\r\n     \r\n    function ts_to_dateTime(uint timestamp) public pure returns (uint year, uint month, uint day, uint hour, uint minute, uint second) {\r\n        (year, month, day) = _daysToDate(timestamp/ sec_per_day);\r\n        uint secs = timestamp % sec_per_day;\r\n        hour = secs / sec_per_hour;\r\n        secs = secs % sec_per_hour;\r\n        minute = secs / sec_per_minute;\r\n        second = secs % sec_per_minute;\r\n        require(verifyDate(year, month, day) == true, \"Date conversion failed\");\r\n    }\r\n\r\n    function ts_to_MY(uint timestamp) public pure returns (uint year, uint month, uint day) {\r\n        (year, month,  day) = _daysToDate(timestamp/ sec_per_day);\r\n        require(verifyDate(year, month, day) == true, \"Date conversion failed\");\r\n    }\r\n    \r\n    function verifyDate(uint year, uint month, uint day) internal pure returns (bool valid) {\r\n        if (year >= 1970 && month > 0 && month <= 12) {\r\n            uint daysInMonth = _getDaysInMonth(year, month);\r\n            if (day > 0 && day <= daysInMonth) {\r\n                valid = true;\r\n            }\r\n        }\r\n    }\r\n    \r\n    function getDaysInMonth(uint timestamp) internal pure returns (uint daysInMonth) {\r\n        (uint year, uint month,) = _daysToDate(timestamp / sec_per_day);\r\n        daysInMonth = _getDaysInMonth(year, month);\r\n    }\r\n    function _getDaysInMonth(uint year, uint month) internal pure returns (uint daysInMonth) {\r\n        if (month == 1 || month == 3 || month == 5 || month == 7 || month == 8 || month == 10 || month == 12) {\r\n            daysInMonth = 31;\r\n        } else if (month != 2) {\r\n            daysInMonth = 30;\r\n        } else {\r\n            daysInMonth = _isLeapYear(year) ? 29 : 28;\r\n        }\r\n    }\r\n    \r\n    function isLeapYear(uint timestamp) internal pure returns (bool leapYear) {\r\n        (uint year,,) = _daysToDate(timestamp / sec_per_day);\r\n        leapYear = _isLeapYear(year);\r\n    }\r\n    function _isLeapYear(uint year) internal pure returns (bool leapYear) {\r\n        leapYear = ((year % 4 == 0) && (year % 100 != 0)) || (year % 400 == 0);\r\n    }\r\n    \r\n    function addMonths(uint timestamp, uint _months) internal pure returns (uint newTimestamp) {\r\n        (uint year, uint month, uint day) = _daysToDate(timestamp / sec_per_day);\r\n        month += _months;\r\n        year += (month - 1) / 12;\r\n        month = (month - 1) % 12 + 1;\r\n        uint daysInMonth = _getDaysInMonth(year, month);\r\n        if (day > daysInMonth) {\r\n            day = daysInMonth;\r\n        }\r\n        newTimestamp = _daysFromDate(year, month, day) * sec_per_day + timestamp % sec_per_day;\r\n        require(newTimestamp >= timestamp, \"Add months function failed\");\r\n    }\r\n    \r\n    function addDays(uint timestamp, uint _days) internal pure returns (uint newTimestamp) {\r\n        newTimestamp = timestamp + _days * sec_per_day;\r\n        require(newTimestamp >= timestamp, \"Add days function failed\");\r\n    }\r\n    \r\n    function timestampFromDateTime(uint year, uint month, uint day, uint hour, uint minute, uint second) internal pure returns (uint timestamp) {\r\n        timestamp = _daysFromDate(year, month, day) * sec_per_day + hour * sec_per_hour + minute * sec_per_minute + second;\r\n    }\r\n    \r\n    function setMonthly(address _user, uint amount, uint interval, uint startDay, uint startMonth, uint startYear, uint startHour, uint startMin) public onlyOwner {\r\n        uint _startHour = startHour + 5; //EST to UTC\r\n        allowance[_user].initTime = timestampFromDateTime(startYear, startMonth, startDay, _startHour, startMin, 0);\r\n        require(allowance[_user].initTime >= block.timestamp, \"The date set is not far enough into the future\");\r\n        allowance[_user]._reloadAmount = amount;\r\n        reload[_user]._startYear = startYear;\r\n        reload[_user]._startMonth = startMonth;\r\n        reload[_user]._startDay = startDay;\r\n        reload[_user]._startHour = startHour;\r\n        reload[_user]._startMinute = startMin;\r\n        allowance[_user].DailyOrMonthly = false;\r\n        allowance[_user].recurrance = true;\r\n        allowance[_user].i = interval;\r\n        allowance[_user].j = 0;\r\n        allowance[_user].isDeleted = false;\r\n        (uint _year, uint _month, uint _day) = ts_to_MY(allowance[_user].initTime);\r\n        uint daysinM = _getDaysInMonth(_year, _month);\r\n        allowance[_user].repeatSec = daysinM*sec_per_day;\r\n        // repeat sec for monthly to change each month\r\n    }\r\n    \r\n    function setDaily(address _user, uint amount, uint interval, uint startDay, uint startMonth, uint startYear, uint startHour, uint startMin) public onlyOwner {\r\n        uint _startHour = startHour + 5; //EST to UTC\r\n        allowance[_user].initTime = timestampFromDateTime(startYear, startMonth, startDay, _startHour, startMin, 0);\r\n        require(allowance[_user].initTime >= block.timestamp, \"The date set is not far enough into the future\");\r\n        allowance[_user]._reloadAmount = amount;\r\n        reload[_user]._startYear = startYear;\r\n        reload[_user]._startMonth = startMonth;\r\n        reload[_user]._startDay = startDay;\r\n        reload[_user]._startHour = startHour;\r\n        reload[_user]._startMinute = startMin;\r\n        allowance[_user].DailyOrMonthly = true;\r\n        allowance[_user].recurrance = true;\r\n        allowance[_user].i = interval;\r\n        allowance[_user].j = 0;\r\n        allowance[_user].isDeleted = false;\r\n        allowance[_user].repeatSec = interval*sec_per_day;\r\n    }    \r\n //End scheduling Section\r\n\r\n    function TrueOwner() internal view returns(bool) {\r\n        return owner() == msg.sender;\r\n    }\r\n\r\n    function SetAllowance(address _user, uint _amount) public onlyOwner {\r\n        allowance[_user]._allowance+= _amount;\r\n        emit AllowanceChange(_user, msg.sender, _amount, allowance[_user]._allowance, int(_amount) - int(allowance[_user]._allowance));\r\n    }\r\n    \r\n     function UpdateAllowance(address _user, uint _amount) internal onlyOwner Permissions(_amount, _user) {\r\n        emit AllowanceChange(_user, msg.sender, allowance[_user]._allowance - _amount, allowance[_user]._allowance, _x - int(_amount));\r\n        allowance[_user]._allowance -= _amount;\r\n    }\r\n\r\n    function ReloadAllowance(address _user, uint _amount) public {\r\n        require(allowance[_user].recurrance == true && allowance[_user].isDeleted == false , \"recurring allowance is not active\");\r\n        require(allowance[_user]._reloadAmount >= _amount, \"You are trying to reload an amount greater than that set by the owner\");\r\n\r\n        if (allowance[_user].DailyOrMonthly==true) {\r\n            uint nextT = addDays(allowance[_user].initTime, allowance[_user].i*allowance[_user].j);\r\n            uint EST = nextT - 5*sec_per_hour; //Convert to EST\r\n            require(EST <= block.timestamp+120, \"It is too early\"); //+80 to allow for descrepencies caused by mining time\r\n            allowance[_user]._allowance += _amount;\r\n            allowance[_user].j += 1;\r\n        }\r\n        else {\r\n            uint nextT = addMonths(allowance[_user].initTime, allowance[_user].i*allowance[_user].j);\r\n            uint EST = nextT - 5*sec_per_hour;\r\n            //return(allowance[_user].j);\r\n            require(EST <= block.timestamp+120, \"It is too early to reload the allowance\"); //+80 to allow for descrepencies caused by mining time\r\n            allowance[_user]._allowance += _amount;\r\n            allowance[_user].j += 1;\r\n            (uint _year, uint _month, uint _day) = ts_to_MY(EST);\r\n            uint daysinM = _getDaysInMonth(_year, _month);\r\n            allowance[_user].repeatSec = daysinM*sec_per_day;\r\n        }\r\n     }\r\n\r\n     function stopReload(address _user) public {\r\n         allowance[_user].isDeleted = true;\r\n     }\r\n\r\n    function diffSeconds(uint year, uint month, uint day, uint hour, uint minute) public view returns (uint _seconds) {\r\n        uint ts = block.timestamp;\r\n        uint _hour = hour+5; //convert to UTC\r\n        uint toTimestamp = timestampFromDateTime(year, month, day, _hour, minute, 0);\r\n        //uint toTimestamp = _daysFromDate(year, month, day) * sec_per_day + hour * sec_per_hour + minute * sec_per_minute + second;\r\n        require(ts <= toTimestamp, \"The date is not in the future\");\r\n        _seconds = toTimestamp - ts;\r\n        return (_seconds);\r\n     }\r\n\r\n     function getMap(address _user) public view returns (uint startYear, uint startMonth, uint startDay, uint startHour, uint startMinute, uint interval, string memory period, uint reloadAmount, bool deleteStatus, uint repeatSeconds ) {\r\n        require(allowance[_user].isDeleted == false, \"The most recent recurring allowance was  or has not been created yet\");\r\n        startYear = reload[_user]._startYear;\r\n        startMonth = reload[_user]._startMonth;\r\n        startDay = reload[_user]._startDay;\r\n        startHour = reload[_user]._startHour;\r\n        startMinute = reload[_user]._startMinute;\r\n        interval = allowance[_user].i;\r\n        if (allowance[_user].DailyOrMonthly == true){\r\n            period = 'Day(s)';\r\n        }\r\n        else {\r\n            period = 'Month(s)';\r\n        }\r\n        reloadAmount = allowance[_user]._reloadAmount;\r\n        deleteStatus = allowance[_user].isDeleted;\r\n        repeatSeconds = allowance[_user].repeatSec;\r\n        return(startYear, startMonth, startDay, startHour, startMinute, interval, period, reloadAmount, deleteStatus, repeatSeconds);\r\n        \r\n     }\r\n\r\n}\r\n",
  "sourcePath": "C:\\Users\\nicba\\BN-Allowance-tst\\contracts\\AllowanceStructure.sol",
  "compiler": {
    "name": "solc",
    "version": "0.8.9+commit.e5eed63a.Emscripten.clang"
  },
  "schemaVersion": "3.4.6",
  "updatedAt": "2023-01-26T20:15:56.776Z",
  "devdoc": {
    "kind": "dev",
    "methods": {
      "owner()": {
        "details": "Returns the address of the current owner."
      },
      "renounceOwnership()": {
        "details": "Leaves the contract without owner. It will not be possible to call `onlyOwner` functions anymore. Can only be called by the current owner. NOTE: Renouncing ownership will leave the contract without an owner, thereby removing any functionality that is only available to the owner."
      },
      "transferOwnership(address)": {
        "details": "Transfers ownership of the contract to a new account (`newOwner`). Can only be called by the current owner."
      }
    },
    "version": 1
  },
  "userdoc": {
    "kind": "user",
    "methods": {},
    "version": 1
  }
}