{
  "contractName": "Allowance",
  "abi": [
    {
      "anonymous": false,
      "inputs": [
        {
          "indexed": true,
          "internalType": "address",
          "name": "_forUser",
          "type": "address"
        },
        {
          "indexed": true,
          "internalType": "address",
          "name": "_ChangedBy",
          "type": "address"
        },
        {
          "indexed": false,
          "internalType": "uint256",
          "name": "_newAllowance",
          "type": "uint256"
        },
        {
          "indexed": false,
          "internalType": "uint256",
          "name": "_oldAllowance",
          "type": "uint256"
        },
        {
          "indexed": false,
          "internalType": "int256",
          "name": "_difference",
          "type": "int256"
        }
      ],
      "name": "AllowanceChange",
      "type": "event"
    },
    {
      "anonymous": false,
      "inputs": [
        {
          "indexed": true,
          "internalType": "address",
          "name": "previousOwner",
          "type": "address"
        },
        {
          "indexed": true,
          "internalType": "address",
          "name": "newOwner",
          "type": "address"
        }
      ],
      "name": "OwnershipTransferred",
      "type": "event"
    },
    {
      "inputs": [
        {
          "internalType": "address",
          "name": "",
          "type": "address"
        }
      ],
      "name": "allowance",
      "outputs": [
        {
          "internalType": "uint256",
          "name": "",
          "type": "uint256"
        }
      ],
      "stateMutability": "view",
      "type": "function"
    },
    {
      "inputs": [],
      "name": "owner",
      "outputs": [
        {
          "internalType": "address",
          "name": "",
          "type": "address"
        }
      ],
      "stateMutability": "view",
      "type": "function"
    },
    {
      "inputs": [],
      "name": "renounceOwnership",
      "outputs": [],
      "stateMutability": "nonpayable",
      "type": "function"
    },
    {
      "inputs": [
        {
          "internalType": "address",
          "name": "newOwner",
          "type": "address"
        }
      ],
      "name": "transferOwnership",
      "outputs": [],
      "stateMutability": "nonpayable",
      "type": "function"
    },
    {
      "inputs": [
        {
          "internalType": "address",
          "name": "_user",
          "type": "address"
        },
        {
          "internalType": "uint256",
          "name": "_amount",
          "type": "uint256"
        }
      ],
      "name": "SetAllowance",
      "outputs": [],
      "stateMutability": "nonpayable",
      "type": "function"
    }
  ],
  "bytecode": "0x608060405234801561001057600080fd5b5061002d61002261003260201b60201c565b61003a60201b60201c565b6100fe565b600033905090565b60008060009054906101000a900473ffffffffffffffffffffffffffffffffffffffff169050816000806101000a81548173ffffffffffffffffffffffffffffffffffffffff021916908373ffffffffffffffffffffffffffffffffffffffff1602179055508173ffffffffffffffffffffffffffffffffffffffff168173ffffffffffffffffffffffffffffffffffffffff167f8be0079c531659141344cd1fd0a4f28419497f9722a3daafe3b4186f6b6457e060405160405180910390a35050565b6108e18061010d6000396000f3fe608060405234801561001057600080fd5b50600436106100575760003560e01c80633e5beab91461005c5780633e7279a31461008c578063715018a6146100a85780638da5cb5b146100b2578063f2fde38b146100d0575b600080fd5b61007660048036038101906100719190610592565b6100ec565b60405161008391906105d8565b60405180910390f35b6100a660048036038101906100a1919061061f565b610104565b005b6100b06102ba565b005b6100ba610342565b6040516100c7919061066e565b60405180910390f35b6100ea60048036038101906100e59190610592565b61036b565b005b60016020528060005260406000206000915090505481565b61010c610463565b73ffffffffffffffffffffffffffffffffffffffff1661012a610342565b73ffffffffffffffffffffffffffffffffffffffff1614610180576040517f08c379a0000000000000000000000000000000000000000000000000000000008152600401610177906106e6565b60405180910390fd5b3373ffffffffffffffffffffffffffffffffffffffff168273ffffffffffffffffffffffffffffffffffffffff167fc01efbe04c5ee8fdaf278af7f682dbebe6c0c2b564f552548d5a88b2b8de7e0e83600160008773ffffffffffffffffffffffffffffffffffffffff1673ffffffffffffffffffffffffffffffffffffffff16815260200190815260200160002054600160008873ffffffffffffffffffffffffffffffffffffffff1673ffffffffffffffffffffffffffffffffffffffff168152602001908152602001600020548661025b919061073f565b60405161026a939291906107e2565b60405180910390a380600160008473ffffffffffffffffffffffffffffffffffffffff1673ffffffffffffffffffffffffffffffffffffffff168152602001908152602001600020819055505050565b6102c2610463565b73ffffffffffffffffffffffffffffffffffffffff166102e0610342565b73ffffffffffffffffffffffffffffffffffffffff1614610336576040517f08c379a000000000000000000000000000000000000000000000000000000000815260040161032d906106e6565b60405180910390fd5b610340600061046b565b565b60008060009054906101000a900473ffffffffffffffffffffffffffffffffffffffff16905090565b610373610463565b73ffffffffffffffffffffffffffffffffffffffff16610391610342565b73ffffffffffffffffffffffffffffffffffffffff16146103e7576040517f08c379a00000000000000000000000000000000000000000000000000000000081526004016103de906106e6565b60405180910390fd5b600073ffffffffffffffffffffffffffffffffffffffff168173ffffffffffffffffffffffffffffffffffffffff161415610457576040517f08c379a000000000000000000000000000000000000000000000000000000000815260040161044e9061088b565b60405180910390fd5b6104608161046b565b50565b600033905090565b60008060009054906101000a900473ffffffffffffffffffffffffffffffffffffffff169050816000806101000a81548173ffffffffffffffffffffffffffffffffffffffff021916908373ffffffffffffffffffffffffffffffffffffffff1602179055508173ffffffffffffffffffffffffffffffffffffffff168173ffffffffffffffffffffffffffffffffffffffff167f8be0079c531659141344cd1fd0a4f28419497f9722a3daafe3b4186f6b6457e060405160405180910390a35050565b600080fd5b600073ffffffffffffffffffffffffffffffffffffffff82169050919050565b600061055f82610534565b9050919050565b61056f81610554565b811461057a57600080fd5b50565b60008135905061058c81610566565b92915050565b6000602082840312156105a8576105a761052f565b5b60006105b68482850161057d565b91505092915050565b6000819050919050565b6105d2816105bf565b82525050565b60006020820190506105ed60008301846105c9565b92915050565b6105fc816105bf565b811461060757600080fd5b50565b600081359050610619816105f3565b92915050565b600080604083850312156106365761063561052f565b5b60006106448582860161057d565b92505060206106558582860161060a565b9150509250929050565b61066881610554565b82525050565b6000602082019050610683600083018461065f565b92915050565b600082825260208201905092915050565b7f4f776e61626c653a2063616c6c6572206973206e6f7420746865206f776e6572600082015250565b60006106d0602083610689565b91506106db8261069a565b602082019050919050565b600060208201905081810360008301526106ff816106c3565b9050919050565b6000819050919050565b7f4e487b7100000000000000000000000000000000000000000000000000000000600052601160045260246000fd5b600061074a82610706565b915061075583610706565b9250827f8000000000000000000000000000000000000000000000000000000000000000018212600084121516156107905761078f610710565b5b827f7fffffffffffffffffffffffffffffffffffffffffffffffffffffffffffffff0182136000841216156107c8576107c7610710565b5b828203905092915050565b6107dc81610706565b82525050565b60006060820190506107f760008301866105c9565b61080460208301856105c9565b61081160408301846107d3565b949350505050565b7f4f776e61626c653a206e6577206f776e657220697320746865207a65726f206160008201527f6464726573730000000000000000000000000000000000000000000000000000602082015250565b6000610875602683610689565b915061088082610819565b604082019050919050565b600060208201905081810360008301526108a481610868565b905091905056fea26469706673582212203de6e3e4fcd3aafa73b7cf6c349bfda42fe86bf3a21c93e1be4e80c1f5d8e25464736f6c63430008090033",
  "immutableReferences": {},
  "source": "pragma solidity 0.8.9;\r\nimport \"@openzeppelin/contracts/access/Ownable.sol\";\r\n\r\ncontract Allowance is Ownable {\r\n    \r\n    event AllowanceChange(address indexed _forUser, address indexed _ChangedBy, uint _newAllowance, uint _oldAllowance ,int _difference);\r\n    mapping(address => uint) public allowance;\r\n    int _x;\r\n\r\n    function TrueOwner() internal view returns(bool) {\r\n        return owner() == msg.sender;\r\n    }\r\n    \r\n    modifier Permissions(uint _amount) {\r\n        require(TrueOwner() || allowance[msg.sender] >= _amount, \"The amount exceeds your allowance.\");\r\n        _;\r\n    }\r\n\r\n    function SetAllowance(address _user, uint _amount) public onlyOwner {\r\n       emit AllowanceChange(_user, msg.sender, _amount, allowance[_user], int(_amount) - int(allowance[_user]));\r\n        allowance[_user] = _amount;\r\n    }\r\n    \r\n     function UpdateAllowance(address _user, uint _amount) internal Permissions(_amount) {\r\n        emit AllowanceChange(_user, msg.sender, allowance[_user] - _amount, allowance[_user], _x - int(_amount));\r\n        allowance[_user] -= _amount;\r\n    }\r\n    \r\n}",
  "sourcePath": "C:\\Users\\Nic\\Allowance-tst\\contracts\\Allowance.sol",
  "compiler": {
    "name": "solc",
    "version": "0.8.9+commit.e5eed63a.Emscripten.clang"
  },
  "schemaVersion": "3.4.3",
  "updatedAt": "2021-10-15T01:41:12.731Z",
  "devdoc": {
    "kind": "dev",
    "methods": {
      "owner()": {
        "details": "Returns the address of the current owner."
      },
      "renounceOwnership()": {
        "details": "Leaves the contract without owner. It will not be possible to call `onlyOwner` functions anymore. Can only be called by the current owner. NOTE: Renouncing ownership will leave the contract without an owner, thereby removing any functionality that is only available to the owner."
      },
      "transferOwnership(address)": {
        "details": "Transfers ownership of the contract to a new account (`newOwner`). Can only be called by the current owner."
      }
    },
    "version": 1
  },
  "userdoc": {
    "kind": "user",
    "methods": {},
    "version": 1
  }
}