{
  "contractName": "SharedWallet",
  "abi": [
    {
      "anonymous": false,
      "inputs": [
        {
          "indexed": true,
          "internalType": "address",
          "name": "_forUser",
          "type": "address"
        },
        {
          "indexed": true,
          "internalType": "address",
          "name": "_ChangedBy",
          "type": "address"
        },
        {
          "indexed": false,
          "internalType": "uint256",
          "name": "_newAllowance",
          "type": "uint256"
        },
        {
          "indexed": false,
          "internalType": "uint256",
          "name": "_oldAllowance",
          "type": "uint256"
        },
        {
          "indexed": false,
          "internalType": "int256",
          "name": "_difference",
          "type": "int256"
        }
      ],
      "name": "AllowanceChange",
      "type": "event"
    },
    {
      "anonymous": false,
      "inputs": [
        {
          "indexed": true,
          "internalType": "address",
          "name": "_ChangedBy",
          "type": "address"
        },
        {
          "indexed": false,
          "internalType": "int256",
          "name": "_difference",
          "type": "int256"
        },
        {
          "indexed": false,
          "internalType": "uint256",
          "name": "_newBalance",
          "type": "uint256"
        }
      ],
      "name": "BalanceChange",
      "type": "event"
    },
    {
      "anonymous": false,
      "inputs": [
        {
          "indexed": true,
          "internalType": "address",
          "name": "previousOwner",
          "type": "address"
        },
        {
          "indexed": true,
          "internalType": "address",
          "name": "newOwner",
          "type": "address"
        }
      ],
      "name": "OwnershipTransferred",
      "type": "event"
    },
    {
      "anonymous": false,
      "inputs": [
        {
          "indexed": true,
          "internalType": "address",
          "name": "_from",
          "type": "address"
        },
        {
          "indexed": false,
          "internalType": "uint256",
          "name": "_amount",
          "type": "uint256"
        }
      ],
      "name": "PaymentIn",
      "type": "event"
    },
    {
      "anonymous": false,
      "inputs": [
        {
          "indexed": true,
          "internalType": "address",
          "name": "_beneficiary",
          "type": "address"
        },
        {
          "indexed": false,
          "internalType": "uint256",
          "name": "_amount",
          "type": "uint256"
        }
      ],
      "name": "PaymentOut",
      "type": "event"
    },
    {
      "inputs": [
        {
          "internalType": "address",
          "name": "_user",
          "type": "address"
        },
        {
          "internalType": "uint256",
          "name": "_amount",
          "type": "uint256"
        }
      ],
      "name": "ReloadAllowance",
      "outputs": [],
      "stateMutability": "nonpayable",
      "type": "function"
    },
    {
      "inputs": [
        {
          "internalType": "address",
          "name": "_user",
          "type": "address"
        },
        {
          "internalType": "uint256",
          "name": "_amount",
          "type": "uint256"
        }
      ],
      "name": "SetAllowance",
      "outputs": [],
      "stateMutability": "nonpayable",
      "type": "function"
    },
    {
      "inputs": [
        {
          "internalType": "address",
          "name": "",
          "type": "address"
        }
      ],
      "name": "allowance",
      "outputs": [
        {
          "internalType": "uint256",
          "name": "_allowance",
          "type": "uint256"
        },
        {
          "internalType": "uint256",
          "name": "repeatSec",
          "type": "uint256"
        },
        {
          "internalType": "uint256",
          "name": "_reloadAmount",
          "type": "uint256"
        },
        {
          "internalType": "uint256",
          "name": "i",
          "type": "uint256"
        },
        {
          "internalType": "uint256",
          "name": "j",
          "type": "uint256"
        },
        {
          "internalType": "uint256",
          "name": "initTime",
          "type": "uint256"
        },
        {
          "internalType": "bool",
          "name": "recurrance",
          "type": "bool"
        },
        {
          "internalType": "bool",
          "name": "DailyOrMonthly",
          "type": "bool"
        },
        {
          "internalType": "bool",
          "name": "isDeleted",
          "type": "bool"
        }
      ],
      "stateMutability": "view",
      "type": "function",
      "constant": true
    },
    {
      "inputs": [
        {
          "internalType": "uint256",
          "name": "year",
          "type": "uint256"
        },
        {
          "internalType": "uint256",
          "name": "month",
          "type": "uint256"
        },
        {
          "internalType": "uint256",
          "name": "day",
          "type": "uint256"
        },
        {
          "internalType": "uint256",
          "name": "hour",
          "type": "uint256"
        },
        {
          "internalType": "uint256",
          "name": "minute",
          "type": "uint256"
        }
      ],
      "name": "diffSeconds",
      "outputs": [
        {
          "internalType": "uint256",
          "name": "_seconds",
          "type": "uint256"
        }
      ],
      "stateMutability": "view",
      "type": "function",
      "constant": true
    },
    {
      "inputs": [],
      "name": "fri",
      "outputs": [
        {
          "internalType": "uint256",
          "name": "",
          "type": "uint256"
        }
      ],
      "stateMutability": "view",
      "type": "function",
      "constant": true
    },
    {
      "inputs": [
        {
          "internalType": "address",
          "name": "_user",
          "type": "address"
        }
      ],
      "name": "getMap",
      "outputs": [
        {
          "internalType": "uint256",
          "name": "startYear",
          "type": "uint256"
        },
        {
          "internalType": "uint256",
          "name": "startMonth",
          "type": "uint256"
        },
        {
          "internalType": "uint256",
          "name": "startDay",
          "type": "uint256"
        },
        {
          "internalType": "uint256",
          "name": "startHour",
          "type": "uint256"
        },
        {
          "internalType": "uint256",
          "name": "startMinute",
          "type": "uint256"
        },
        {
          "internalType": "uint256",
          "name": "interval",
          "type": "uint256"
        },
        {
          "internalType": "string",
          "name": "period",
          "type": "string"
        },
        {
          "internalType": "uint256",
          "name": "reloadAmount",
          "type": "uint256"
        },
        {
          "internalType": "bool",
          "name": "deleteStatus",
          "type": "bool"
        },
        {
          "internalType": "uint256",
          "name": "repeatSeconds",
          "type": "uint256"
        }
      ],
      "stateMutability": "view",
      "type": "function",
      "constant": true
    },
    {
      "inputs": [],
      "name": "mon",
      "outputs": [
        {
          "internalType": "uint256",
          "name": "",
          "type": "uint256"
        }
      ],
      "stateMutability": "view",
      "type": "function",
      "constant": true
    },
    {
      "inputs": [],
      "name": "owner",
      "outputs": [
        {
          "internalType": "address",
          "name": "",
          "type": "address"
        }
      ],
      "stateMutability": "view",
      "type": "function",
      "constant": true
    },
    {
      "inputs": [
        {
          "internalType": "address",
          "name": "",
          "type": "address"
        }
      ],
      "name": "reload",
      "outputs": [
        {
          "internalType": "uint256",
          "name": "_startYear",
          "type": "uint256"
        },
        {
          "internalType": "uint256",
          "name": "_startMonth",
          "type": "uint256"
        },
        {
          "internalType": "uint256",
          "name": "_startDay",
          "type": "uint256"
        },
        {
          "internalType": "uint256",
          "name": "_startHour",
          "type": "uint256"
        },
        {
          "internalType": "uint256",
          "name": "_startMinute",
          "type": "uint256"
        }
      ],
      "stateMutability": "view",
      "type": "function",
      "constant": true
    },
    {
      "inputs": [],
      "name": "sat",
      "outputs": [
        {
          "internalType": "uint256",
          "name": "",
          "type": "uint256"
        }
      ],
      "stateMutability": "view",
      "type": "function",
      "constant": true
    },
    {
      "inputs": [],
      "name": "sec_per_day",
      "outputs": [
        {
          "internalType": "uint256",
          "name": "",
          "type": "uint256"
        }
      ],
      "stateMutability": "view",
      "type": "function",
      "constant": true
    },
    {
      "inputs": [],
      "name": "sec_per_hour",
      "outputs": [
        {
          "internalType": "uint256",
          "name": "",
          "type": "uint256"
        }
      ],
      "stateMutability": "view",
      "type": "function",
      "constant": true
    },
    {
      "inputs": [],
      "name": "sec_per_minute",
      "outputs": [
        {
          "internalType": "uint256",
          "name": "",
          "type": "uint256"
        }
      ],
      "stateMutability": "view",
      "type": "function",
      "constant": true
    },
    {
      "inputs": [
        {
          "internalType": "address",
          "name": "_user",
          "type": "address"
        },
        {
          "internalType": "uint256",
          "name": "amount",
          "type": "uint256"
        },
        {
          "internalType": "uint256",
          "name": "interval",
          "type": "uint256"
        },
        {
          "internalType": "uint256",
          "name": "startDay",
          "type": "uint256"
        },
        {
          "internalType": "uint256",
          "name": "startMonth",
          "type": "uint256"
        },
        {
          "internalType": "uint256",
          "name": "startYear",
          "type": "uint256"
        },
        {
          "internalType": "uint256",
          "name": "startHour",
          "type": "uint256"
        },
        {
          "internalType": "uint256",
          "name": "startMin",
          "type": "uint256"
        }
      ],
      "name": "setDaily",
      "outputs": [],
      "stateMutability": "nonpayable",
      "type": "function"
    },
    {
      "inputs": [
        {
          "internalType": "address",
          "name": "_user",
          "type": "address"
        },
        {
          "internalType": "uint256",
          "name": "amount",
          "type": "uint256"
        },
        {
          "internalType": "uint256",
          "name": "interval",
          "type": "uint256"
        },
        {
          "internalType": "uint256",
          "name": "startDay",
          "type": "uint256"
        },
        {
          "internalType": "uint256",
          "name": "startMonth",
          "type": "uint256"
        },
        {
          "internalType": "uint256",
          "name": "startYear",
          "type": "uint256"
        },
        {
          "internalType": "uint256",
          "name": "startHour",
          "type": "uint256"
        },
        {
          "internalType": "uint256",
          "name": "startMin",
          "type": "uint256"
        }
      ],
      "name": "setMonthly",
      "outputs": [],
      "stateMutability": "nonpayable",
      "type": "function"
    },
    {
      "inputs": [],
      "name": "start_19700101",
      "outputs": [
        {
          "internalType": "int256",
          "name": "",
          "type": "int256"
        }
      ],
      "stateMutability": "view",
      "type": "function",
      "constant": true
    },
    {
      "inputs": [
        {
          "internalType": "address",
          "name": "_user",
          "type": "address"
        }
      ],
      "name": "stopReload",
      "outputs": [],
      "stateMutability": "nonpayable",
      "type": "function"
    },
    {
      "inputs": [],
      "name": "sun",
      "outputs": [
        {
          "internalType": "uint256",
          "name": "",
          "type": "uint256"
        }
      ],
      "stateMutability": "view",
      "type": "function",
      "constant": true
    },
    {
      "inputs": [],
      "name": "thu",
      "outputs": [
        {
          "internalType": "uint256",
          "name": "",
          "type": "uint256"
        }
      ],
      "stateMutability": "view",
      "type": "function",
      "constant": true
    },
    {
      "inputs": [
        {
          "internalType": "address",
          "name": "newOwner",
          "type": "address"
        }
      ],
      "name": "transferOwnership",
      "outputs": [],
      "stateMutability": "nonpayable",
      "type": "function"
    },
    {
      "inputs": [
        {
          "internalType": "uint256",
          "name": "timestamp",
          "type": "uint256"
        }
      ],
      "name": "ts_to_MY",
      "outputs": [
        {
          "internalType": "uint256",
          "name": "year",
          "type": "uint256"
        },
        {
          "internalType": "uint256",
          "name": "month",
          "type": "uint256"
        },
        {
          "internalType": "uint256",
          "name": "day",
          "type": "uint256"
        }
      ],
      "stateMutability": "pure",
      "type": "function",
      "constant": true
    },
    {
      "inputs": [
        {
          "internalType": "uint256",
          "name": "timestamp",
          "type": "uint256"
        }
      ],
      "name": "ts_to_dateTime",
      "outputs": [
        {
          "internalType": "uint256",
          "name": "year",
          "type": "uint256"
        },
        {
          "internalType": "uint256",
          "name": "month",
          "type": "uint256"
        },
        {
          "internalType": "uint256",
          "name": "day",
          "type": "uint256"
        },
        {
          "internalType": "uint256",
          "name": "hour",
          "type": "uint256"
        },
        {
          "internalType": "uint256",
          "name": "minute",
          "type": "uint256"
        },
        {
          "internalType": "uint256",
          "name": "second",
          "type": "uint256"
        }
      ],
      "stateMutability": "pure",
      "type": "function",
      "constant": true
    },
    {
      "inputs": [],
      "name": "tue",
      "outputs": [
        {
          "internalType": "uint256",
          "name": "",
          "type": "uint256"
        }
      ],
      "stateMutability": "view",
      "type": "function",
      "constant": true
    },
    {
      "inputs": [],
      "name": "wed",
      "outputs": [
        {
          "internalType": "uint256",
          "name": "",
          "type": "uint256"
        }
      ],
      "stateMutability": "view",
      "type": "function",
      "constant": true
    },
    {
      "stateMutability": "payable",
      "type": "receive",
      "payable": true
    },
    {
      "inputs": [
        {
          "internalType": "address payable",
          "name": "_payee",
          "type": "address"
        },
        {
          "internalType": "uint256",
          "name": "_amount",
          "type": "uint256"
        }
      ],
      "name": "PayOut",
      "outputs": [],
      "stateMutability": "nonpayable",
      "type": "function"
    },
    {
      "inputs": [],
      "name": "renounceOwnership",
      "outputs": [],
      "stateMutability": "view",
      "type": "function",
      "constant": true
    },
    {
      "inputs": [],
      "name": "ContractBalance",
      "outputs": [
        {
          "internalType": "uint256",
          "name": "",
          "type": "uint256"
        }
      ],
      "stateMutability": "view",
      "type": "function",
      "constant": true
    },
    {
      "inputs": [
        {
          "internalType": "address",
          "name": "_user",
          "type": "address"
        }
      ],
      "name": "ViewAllowance",
      "outputs": [
        {
          "internalType": "uint256",
          "name": "",
          "type": "uint256"
        }
      ],
      "stateMutability": "view",
      "type": "function",
      "constant": true
    },
    {
      "inputs": [],
      "name": "ViewMyAllowance",
      "outputs": [
        {
          "internalType": "uint256",
          "name": "",
          "type": "uint256"
        }
      ],
      "stateMutability": "view",
      "type": "function",
      "constant": true
    },
    {
      "inputs": [
        {
          "internalType": "address",
          "name": "_user",
          "type": "address"
        }
      ],
      "name": "rViewAllowance",
      "outputs": [
        {
          "internalType": "uint256",
          "name": "_year",
          "type": "uint256"
        },
        {
          "internalType": "uint256",
          "name": "_month",
          "type": "uint256"
        },
        {
          "internalType": "uint256",
          "name": "_day",
          "type": "uint256"
        },
        {
          "internalType": "uint256",
          "name": "_hour",
          "type": "uint256"
        },
        {
          "internalType": "uint256",
          "name": "_minute",
          "type": "uint256"
        },
        {
          "internalType": "uint256",
          "name": "_second",
          "type": "uint256"
        }
      ],
      "stateMutability": "view",
      "type": "function",
      "constant": true
    }
  ],
  "bytecode": "0x6080604052670de0b6b3a76400006004553480156200001d57600080fd5b506200003e620000326200004460201b60201c565b6200004c60201b60201c565b62000110565b600033905090565b60008060009054906101000a900473ffffffffffffffffffffffffffffffffffffffff169050816000806101000a81548173ffffffffffffffffffffffffffffffffffffffff021916908373ffffffffffffffffffffffffffffffffffffffff1602179055508173ffffffffffffffffffffffffffffffffffffffff168173ffffffffffffffffffffffffffffffffffffffff167f8be0079c531659141344cd1fd0a4f28419497f9722a3daafe3b4186f6b6457e060405160405180910390a35050565b6142d380620001206000396000f3fe6080604052600436106101d15760003560e01c806368aee9e8116100f75780639735b0cb11610095578063d9b002aa11610064578063d9b002aa14610758578063e7c6eade14610783578063ecc0f2fe146107ae578063f2fde38b146107eb57610276565b80639735b0cb1461069a578063a3108ca0146106c3578063a789042e146106ee578063cff6220a1461071957610276565b8063805760e6116100d1578063805760e6146105d75780638c6f4e8b146106025780638cf705fd1461062d5780638da5cb5b1461066f57610276565b806368aee9e814610558578063715018a6146105835780637900dfc61461059a57610276565b806328788bd41161016f5780633bfe74671161013e5780633bfe7467146104965780633e5beab9146104bf5780633e7279a31461050457806366073b9f1461052d57610276565b806328788bd4146103d35780633339b3af14610415578063341ad5a9146104405780633b6680591461046b57610276565b80631947bd2f116101ab5780631947bd2f146102f857806321f443771461033e578063221b3ff21461037f57806324e0ac2c146103aa57610276565b80631038b8d11461027b578063154c5712146102a457806317b5bb32146102cd57610276565b36610276573373ffffffffffffffffffffffffffffffffffffffff167f841c61b7bbf0fcca78b403498e7371c8fb7c2923fc1d896647386bc226c2077b344760405161021e929190613019565b60405180910390a23373ffffffffffffffffffffffffffffffffffffffff167f0dac9d2c2dc993cdd4938098c717f417231cfb35bec527416c08b6666b4779543460405161026c9190613042565b60405180910390a2005b600080fd5b34801561028757600080fd5b506102a2600480360381019061029d91906130ec565b610814565b005b3480156102b057600080fd5b506102cb60048036038101906102c691906131a2565b610d8c565b005b3480156102d957600080fd5b506102e26113e7565b6040516102ef9190613042565b60405180910390f35b34801561030457600080fd5b5061031f600480360381019061031a91906131e2565b6113ec565b6040516103359a999897969594939291906132c3565b60405180910390f35b34801561034a57600080fd5b50610365600480360381019061036091906131e2565b6117ea565b604051610376959493929190613366565b60405180910390f35b34801561038b57600080fd5b50610394611820565b6040516103a19190613042565b60405180910390f35b3480156103b657600080fd5b506103d160048036038101906103cc91906130ec565b61186a565b005b3480156103df57600080fd5b506103fa60048036038101906103f591906131e2565b611d79565b60405161040c969594939291906133b9565b60405180910390f35b34801561042157600080fd5b5061042a611dee565b6040516104379190613042565b60405180910390f35b34801561044c57600080fd5b50610455611df3565b6040516104629190613042565b60405180910390f35b34801561047757600080fd5b50610480611df8565b60405161048d9190613042565b60405180910390f35b3480156104a257600080fd5b506104bd60048036038101906104b891906131e2565b611e00565b005b3480156104cb57600080fd5b506104e660048036038101906104e191906131e2565b611e5d565b6040516104fb9998979695949392919061341a565b60405180910390f35b34801561051057600080fd5b5061052b600480360381019061052691906131a2565b611ed2565b005b34801561053957600080fd5b506105426120a3565b60405161054f91906134a7565b60405180910390f35b34801561056457600080fd5b5061056d6120aa565b60405161057a9190613042565b60405180910390f35b34801561058f57600080fd5b506105986120af565b005b3480156105a657600080fd5b506105c160048036038101906105bc91906134c2565b612166565b6040516105ce9190613042565b60405180910390f35b3480156105e357600080fd5b506105ec6121ed565b6040516105f99190613042565b60405180910390f35b34801561060e57600080fd5b506106176121f3565b6040516106249190613042565b60405180910390f35b34801561063957600080fd5b50610654600480360381019061064f919061353d565b6121fa565b604051610666969594939291906133b9565b60405180910390f35b34801561067b57600080fd5b506106846122d2565b6040516106919190613579565b60405180910390f35b3480156106a657600080fd5b506106c160048036038101906106bc91906135d2565b6122fb565b005b3480156106cf57600080fd5b506106d86124d2565b6040516106e59190613042565b60405180910390f35b3480156106fa57600080fd5b506107036124d7565b6040516107109190613042565b60405180910390f35b34801561072557600080fd5b50610740600480360381019061073b919061353d565b6124dc565b60405161074f93929190613612565b60405180910390f35b34801561076457600080fd5b5061076d61255c565b60405161077a9190613042565b60405180910390f35b34801561078f57600080fd5b50610798612561565b6040516107a59190613042565b60405180910390f35b3480156107ba57600080fd5b506107d560048036038101906107d091906131e2565b612566565b6040516107e29190613042565b60405180910390f35b3480156107f757600080fd5b50610812600480360381019061080d91906131e2565b6125b2565b005b61081c6126aa565b73ffffffffffffffffffffffffffffffffffffffff1661083a6122d2565b73ffffffffffffffffffffffffffffffffffffffff1614610890576040517f08c379a000000000000000000000000000000000000000000000000000000000815260040161088790613695565b60405180910390fd5b600060058361089f91906136e4565b90506108b0848688848660006126b2565b600160008b73ffffffffffffffffffffffffffffffffffffffff1673ffffffffffffffffffffffffffffffffffffffff1681526020019081526020016000206005018190555042600160008b73ffffffffffffffffffffffffffffffffffffffff1673ffffffffffffffffffffffffffffffffffffffff16815260200190815260200160002060050154101561097b576040517f08c379a0000000000000000000000000000000000000000000000000000000008152600401610972906137ac565b60405180910390fd5b87600160008b73ffffffffffffffffffffffffffffffffffffffff1673ffffffffffffffffffffffffffffffffffffffff1681526020019081526020016000206002018190555083600260008b73ffffffffffffffffffffffffffffffffffffffff1673ffffffffffffffffffffffffffffffffffffffff1681526020019081526020016000206000018190555084600260008b73ffffffffffffffffffffffffffffffffffffffff1673ffffffffffffffffffffffffffffffffffffffff1681526020019081526020016000206001018190555085600260008b73ffffffffffffffffffffffffffffffffffffffff1673ffffffffffffffffffffffffffffffffffffffff1681526020019081526020016000206002018190555082600260008b73ffffffffffffffffffffffffffffffffffffffff1673ffffffffffffffffffffffffffffffffffffffff1681526020019081526020016000206003018190555081600260008b73ffffffffffffffffffffffffffffffffffffffff1673ffffffffffffffffffffffffffffffffffffffff168152602001908152602001600020600401819055506000600160008b73ffffffffffffffffffffffffffffffffffffffff1673ffffffffffffffffffffffffffffffffffffffff16815260200190815260200160002060060160016101000a81548160ff02191690831515021790555060018060008b73ffffffffffffffffffffffffffffffffffffffff1673ffffffffffffffffffffffffffffffffffffffff16815260200190815260200160002060060160006101000a81548160ff02191690831515021790555086600160008b73ffffffffffffffffffffffffffffffffffffffff1673ffffffffffffffffffffffffffffffffffffffff168152602001908152602001600020600301819055506000600160008b73ffffffffffffffffffffffffffffffffffffffff1673ffffffffffffffffffffffffffffffffffffffff168152602001908152602001600020600401819055506000600160008b73ffffffffffffffffffffffffffffffffffffffff1673ffffffffffffffffffffffffffffffffffffffff16815260200190815260200160002060060160026101000a81548160ff0219169083151502179055506000806000610d14600160008e73ffffffffffffffffffffffffffffffffffffffff1673ffffffffffffffffffffffffffffffffffffffff168152602001908152602001600020600501546124dc565b9250925092506000610d268484612713565b90506201518081610d3791906137cc565b600160008f73ffffffffffffffffffffffffffffffffffffffff1673ffffffffffffffffffffffffffffffffffffffff1681526020019081526020016000206001018190555050505050505050505050505050565b60011515600160008473ffffffffffffffffffffffffffffffffffffffff1673ffffffffffffffffffffffffffffffffffffffff16815260200190815260200160002060060160009054906101000a900460ff161515148015610e42575060001515600160008473ffffffffffffffffffffffffffffffffffffffff1673ffffffffffffffffffffffffffffffffffffffff16815260200190815260200160002060060160029054906101000a900460ff161515145b610e81576040517f08c379a0000000000000000000000000000000000000000000000000000000008152600401610e7890613898565b60405180910390fd5b80600160008473ffffffffffffffffffffffffffffffffffffffff1673ffffffffffffffffffffffffffffffffffffffff168152602001908152602001600020600201541015610f06576040517f08c379a0000000000000000000000000000000000000000000000000000000008152600401610efd90613950565b60405180910390fd5b60011515600160008473ffffffffffffffffffffffffffffffffffffffff1673ffffffffffffffffffffffffffffffffffffffff16815260200190815260200160002060060160019054906101000a900460ff161515141561116757600061103f600160008573ffffffffffffffffffffffffffffffffffffffff1673ffffffffffffffffffffffffffffffffffffffff16815260200190815260200160002060050154600160008673ffffffffffffffffffffffffffffffffffffffff1673ffffffffffffffffffffffffffffffffffffffff16815260200190815260200160002060040154600160008773ffffffffffffffffffffffffffffffffffffffff1673ffffffffffffffffffffffffffffffffffffffff1681526020019081526020016000206003015461103a91906137cc565b61279e565b90506000610e10600561105291906137cc565b8261105d9190613970565b905060784261106c91906136e4565b8111156110ae576040517f08c379a00000000000000000000000000000000000000000000000000000000081526004016110a5906139f0565b60405180910390fd5b82600160008673ffffffffffffffffffffffffffffffffffffffff1673ffffffffffffffffffffffffffffffffffffffff168152602001908152602001600020600001600082825461110091906136e4565b9250508190555060018060008673ffffffffffffffffffffffffffffffffffffffff1673ffffffffffffffffffffffffffffffffffffffff168152602001908152602001600020600401600082825461115991906136e4565b9250508190555050506113e3565b6000611244600160008573ffffffffffffffffffffffffffffffffffffffff1673ffffffffffffffffffffffffffffffffffffffff16815260200190815260200160002060050154600160008673ffffffffffffffffffffffffffffffffffffffff1673ffffffffffffffffffffffffffffffffffffffff16815260200190815260200160002060040154600160008773ffffffffffffffffffffffffffffffffffffffff1673ffffffffffffffffffffffffffffffffffffffff1681526020019081526020016000206003015461123f91906137cc565b612805565b90506000610e10600561125791906137cc565b826112629190613970565b905060784261127191906136e4565b8111156112b3576040517f08c379a00000000000000000000000000000000000000000000000000000000081526004016112aa90613a82565b60405180910390fd5b82600160008673ffffffffffffffffffffffffffffffffffffffff1673ffffffffffffffffffffffffffffffffffffffff168152602001908152602001600020600001600082825461130591906136e4565b9250508190555060018060008673ffffffffffffffffffffffffffffffffffffffff1673ffffffffffffffffffffffffffffffffffffffff168152602001908152602001600020600401600082825461135e91906136e4565b925050819055506000806000611373846124dc565b92509250925060006113858484612713565b9050620151808161139691906137cc565b600160008a73ffffffffffffffffffffffffffffffffffffffff1673ffffffffffffffffffffffffffffffffffffffff168152602001908152602001600020600101819055505050505050505b5050565b600781565b60008060008060008060606000806000801515600160008d73ffffffffffffffffffffffffffffffffffffffff1673ffffffffffffffffffffffffffffffffffffffff16815260200190815260200160002060060160029054906101000a900460ff16151514611491576040517f08c379a000000000000000000000000000000000000000000000000000000000815260040161148890613b3a565b60405180910390fd5b600260008c73ffffffffffffffffffffffffffffffffffffffff1673ffffffffffffffffffffffffffffffffffffffff168152602001908152602001600020600001549950600260008c73ffffffffffffffffffffffffffffffffffffffff1673ffffffffffffffffffffffffffffffffffffffff168152602001908152602001600020600101549850600260008c73ffffffffffffffffffffffffffffffffffffffff1673ffffffffffffffffffffffffffffffffffffffff168152602001908152602001600020600201549750600260008c73ffffffffffffffffffffffffffffffffffffffff1673ffffffffffffffffffffffffffffffffffffffff168152602001908152602001600020600301549650600260008c73ffffffffffffffffffffffffffffffffffffffff1673ffffffffffffffffffffffffffffffffffffffff168152602001908152602001600020600401549550600160008c73ffffffffffffffffffffffffffffffffffffffff1673ffffffffffffffffffffffffffffffffffffffff16815260200190815260200160002060030154945060011515600160008d73ffffffffffffffffffffffffffffffffffffffff1673ffffffffffffffffffffffffffffffffffffffff16815260200190815260200160002060060160019054906101000a900460ff16151514156116c8576040518060400160405280600681526020017f44617928732900000000000000000000000000000000000000000000000000008152509350611701565b6040518060400160405280600881526020017f4d6f6e746828732900000000000000000000000000000000000000000000000081525093505b600160008c73ffffffffffffffffffffffffffffffffffffffff1673ffffffffffffffffffffffffffffffffffffffff168152602001908152602001600020600201549250600160008c73ffffffffffffffffffffffffffffffffffffffff1673ffffffffffffffffffffffffffffffffffffffff16815260200190815260200160002060060160029054906101000a900460ff169150600160008c73ffffffffffffffffffffffffffffffffffffffff1673ffffffffffffffffffffffffffffffffffffffff1681526020019081526020016000206001015490509193959799509193959799565b60026020528060005260406000206000915090508060000154908060010154908060020154908060030154908060040154905085565b6000600160003373ffffffffffffffffffffffffffffffffffffffff1673ffffffffffffffffffffffffffffffffffffffff16815260200190815260200160002060000154905090565b6118726126aa565b73ffffffffffffffffffffffffffffffffffffffff166118906122d2565b73ffffffffffffffffffffffffffffffffffffffff16146118e6576040517f08c379a00000000000000000000000000000000000000000000000000000000081526004016118dd90613695565b60405180910390fd5b60006005836118f591906136e4565b9050611906848688848660006126b2565b600160008b73ffffffffffffffffffffffffffffffffffffffff1673ffffffffffffffffffffffffffffffffffffffff1681526020019081526020016000206005018190555042600160008b73ffffffffffffffffffffffffffffffffffffffff1673ffffffffffffffffffffffffffffffffffffffff1681526020019081526020016000206005015410156119d1576040517f08c379a00000000000000000000000000000000000000000000000000000000081526004016119c8906137ac565b60405180910390fd5b87600160008b73ffffffffffffffffffffffffffffffffffffffff1673ffffffffffffffffffffffffffffffffffffffff1681526020019081526020016000206002018190555083600260008b73ffffffffffffffffffffffffffffffffffffffff1673ffffffffffffffffffffffffffffffffffffffff1681526020019081526020016000206000018190555084600260008b73ffffffffffffffffffffffffffffffffffffffff1673ffffffffffffffffffffffffffffffffffffffff1681526020019081526020016000206001018190555085600260008b73ffffffffffffffffffffffffffffffffffffffff1673ffffffffffffffffffffffffffffffffffffffff1681526020019081526020016000206002018190555082600260008b73ffffffffffffffffffffffffffffffffffffffff1673ffffffffffffffffffffffffffffffffffffffff1681526020019081526020016000206003018190555081600260008b73ffffffffffffffffffffffffffffffffffffffff1673ffffffffffffffffffffffffffffffffffffffff1681526020019081526020016000206004018190555060018060008b73ffffffffffffffffffffffffffffffffffffffff1673ffffffffffffffffffffffffffffffffffffffff16815260200190815260200160002060060160016101000a81548160ff02191690831515021790555060018060008b73ffffffffffffffffffffffffffffffffffffffff1673ffffffffffffffffffffffffffffffffffffffff16815260200190815260200160002060060160006101000a81548160ff02191690831515021790555086600160008b73ffffffffffffffffffffffffffffffffffffffff1673ffffffffffffffffffffffffffffffffffffffff168152602001908152602001600020600301819055506000600160008b73ffffffffffffffffffffffffffffffffffffffff1673ffffffffffffffffffffffffffffffffffffffff168152602001908152602001600020600401819055506000600160008b73ffffffffffffffffffffffffffffffffffffffff1673ffffffffffffffffffffffffffffffffffffffff16815260200190815260200160002060060160026101000a81548160ff0219169083151502179055506201518087611d2891906137cc565b600160008b73ffffffffffffffffffffffffffffffffffffffff1673ffffffffffffffffffffffffffffffffffffffff16815260200190815260200160002060010181905550505050505050505050565b600080600080600080611dcd600160008973ffffffffffffffffffffffffffffffffffffffff1673ffffffffffffffffffffffffffffffffffffffff168152602001908152602001600020600501546121fa565b809650819750829850839950849a50859b5050505050505091939550919395565b600581565b600681565b600047905090565b60018060008373ffffffffffffffffffffffffffffffffffffffff1673ffffffffffffffffffffffffffffffffffffffff16815260200190815260200160002060060160026101000a81548160ff02191690831515021790555050565b60016020528060005260406000206000915090508060000154908060010154908060020154908060030154908060040154908060050154908060060160009054906101000a900460ff16908060060160019054906101000a900460ff16908060060160029054906101000a900460ff16905089565b611eda6126aa565b73ffffffffffffffffffffffffffffffffffffffff16611ef86122d2565b73ffffffffffffffffffffffffffffffffffffffff1614611f4e576040517f08c379a0000000000000000000000000000000000000000000000000000000008152600401611f4590613695565b60405180910390fd5b80600160008473ffffffffffffffffffffffffffffffffffffffff1673ffffffffffffffffffffffffffffffffffffffff1681526020019081526020016000206000016000828254611fa091906136e4565b925050819055503373ffffffffffffffffffffffffffffffffffffffff168273ffffffffffffffffffffffffffffffffffffffff167fc01efbe04c5ee8fdaf278af7f682dbebe6c0c2b564f552548d5a88b2b8de7e0e83600160008773ffffffffffffffffffffffffffffffffffffffff1673ffffffffffffffffffffffffffffffffffffffff16815260200190815260200160002060000154600160008873ffffffffffffffffffffffffffffffffffffffff1673ffffffffffffffffffffffffffffffffffffffff16815260200190815260200160002060000154866120889190613b5a565b60405161209793929190613bee565b60405180910390a35050565b62253d8c81565b600381565b6120b76126aa565b73ffffffffffffffffffffffffffffffffffffffff166120d56122d2565b73ffffffffffffffffffffffffffffffffffffffff161461212b576040517f08c379a000000000000000000000000000000000000000000000000000000000815260040161212290613695565b60405180910390fd5b6040517f08c379a000000000000000000000000000000000000000000000000000000000815260040161215d90613c71565b60405180910390fd5b600080429050600060058561217b91906136e4565b9050600061218e898989858960006126b2565b9050808311156121d3576040517f08c379a00000000000000000000000000000000000000000000000000000000081526004016121ca90613cdd565b60405180910390fd5b82816121df9190613970565b935050505095945050505050565b610e1081565b6201518081565b60008060008060008061221a62015180886122159190613d2c565b61291e565b809650819750829850505050600062015180886122379190613d5d565b9050610e10816122479190613d2c565b9350610e10816122579190613d5d565b9050603c816122669190613d2c565b9250603c816122759190613d5d565b915060011515612286888888612abd565b1515146122c8576040517f08c379a00000000000000000000000000000000000000000000000000000000081526004016122bf90613dda565b60405180910390fd5b5091939550919395565b60008060009054906101000a900473ffffffffffffffffffffffffffffffffffffffff16905090565b808281600160008373ffffffffffffffffffffffffffffffffffffffff1673ffffffffffffffffffffffffffffffffffffffff168152602001908152602001600020600001541015612382576040517f08c379a000000000000000000000000000000000000000000000000000000000815260040161237990613e6c565b60405180910390fd5b478311156123c5576040517f08c379a00000000000000000000000000000000000000000000000000000000081526004016123bc90613efe565b60405180910390fd5b6123cf8484612b14565b8373ffffffffffffffffffffffffffffffffffffffff167f841c61b7bbf0fcca78b403498e7371c8fb7c2923fc1d896647386bc226c2077b846003546124159190613b5a565b85476124219190613970565b60405161242f929190613019565b60405180910390a28373ffffffffffffffffffffffffffffffffffffffff167fc0e95c944cb17925f20927080c22961d19afb50de205b7174a30428be9c80df68460405161247d9190613042565b60405180910390a28373ffffffffffffffffffffffffffffffffffffffff166108fc849081150290604051600060405180830381858888f193505050501580156124cb573d6000803e3d6000fd5b5050505050565b600281565b603c81565b60008060006124f862015180856124f39190613d2c565b61291e565b80935081945082955050505060011515612513848484612abd565b151514612555576040517f08c379a000000000000000000000000000000000000000000000000000000000815260040161254c90613dda565b60405180910390fd5b9193909250565b600481565b600181565b6000600160008373ffffffffffffffffffffffffffffffffffffffff1673ffffffffffffffffffffffffffffffffffffffff168152602001908152602001600020600001549050919050565b6125ba6126aa565b73ffffffffffffffffffffffffffffffffffffffff166125d86122d2565b73ffffffffffffffffffffffffffffffffffffffff161461262e576040517f08c379a000000000000000000000000000000000000000000000000000000000815260040161262590613695565b60405180910390fd5b600073ffffffffffffffffffffffffffffffffffffffff168173ffffffffffffffffffffffffffffffffffffffff16141561269e576040517f08c379a000000000000000000000000000000000000000000000000000000000815260040161269590613f90565b60405180910390fd5b6126a781612d7b565b50565b600033905090565b600081603c846126c291906137cc565b610e10866126d091906137cc565b620151806126df8b8b8b612e3f565b6126e991906137cc565b6126f391906136e4565b6126fd91906136e4565b61270791906136e4565b90509695505050505050565b600060018214806127245750600382145b8061272f5750600582145b8061273a5750600782145b806127455750600882145b806127505750600a82145b8061275b5750600c82145b1561276957601f9050612798565b6002821461277a57601e9050612797565b61278383612f9e565b61278e57601c612791565b601d5b60ff1690505b5b92915050565b600062015180826127af91906137cc565b836127ba91906136e4565b9050828110156127ff576040517f08c379a00000000000000000000000000000000000000000000000000000000081526004016127f690613ffc565b60405180910390fd5b92915050565b600080600080612822620151808761281d9190613d2c565b61291e565b925092509250848261283491906136e4565b9150600c6001836128459190613970565b61284f9190613d2c565b8361285a91906136e4565b92506001600c60018461286d9190613970565b6128779190613d5d565b61288191906136e4565b9150600061288f8484612713565b90508082111561289d578091505b62015180876128ac9190613d5d565b620151806128bb868686612e3f565b6128c591906137cc565b6128cf91906136e4565b945086851015612914576040517f08c379a000000000000000000000000000000000000000000000000000000000815260040161290b90614068565b60405180910390fd5b5050505092915050565b600080600080849050600062253d8c62010bd98361293c9190614088565b6129469190614088565b9050600062023ab182600461295b919061411c565b6129659190614233565b9050600460038262023ab161297a919061411c565b6129849190614088565b61298e9190614233565b826129999190613b5a565b9150600062164b096001846129ae9190614088565b610fa06129bb919061411c565b6129c59190614233565b9050601f6004826105b56129d9919061411c565b6129e39190614233565b846129ee9190613b5a565b6129f89190614088565b9250600061098f846050612a0c919061411c565b612a169190614233565b9050600060508261098f612a2a919061411c565b612a349190614233565b85612a3f9190613b5a565b9050600b82612a4e9190614233565b945084600c612a5d919061411c565b600283612a6a9190614088565b612a749190613b5a565b91508483603186612a859190613b5a565b6064612a91919061411c565b612a9b9190614088565b612aa59190614088565b92508298508197508096505050505050509193909250565b60006107b28410158015612ad15750600083115b8015612ade5750600c8311155b15612b0d576000612aef8585612713565b9050600083118015612b015750808311155b15612b0b57600191505b505b9392505050565b612b1c6126aa565b73ffffffffffffffffffffffffffffffffffffffff16612b3a6122d2565b73ffffffffffffffffffffffffffffffffffffffff1614612b90576040517f08c379a0000000000000000000000000000000000000000000000000000000008152600401612b8790613695565b60405180910390fd5b808281600160008373ffffffffffffffffffffffffffffffffffffffff1673ffffffffffffffffffffffffffffffffffffffff168152602001908152602001600020600001541015612c17576040517f08c379a0000000000000000000000000000000000000000000000000000000008152600401612c0e90613e6c565b60405180910390fd5b3373ffffffffffffffffffffffffffffffffffffffff168473ffffffffffffffffffffffffffffffffffffffff167fc01efbe04c5ee8fdaf278af7f682dbebe6c0c2b564f552548d5a88b2b8de7e0e85600160008973ffffffffffffffffffffffffffffffffffffffff1673ffffffffffffffffffffffffffffffffffffffff16815260200190815260200160002060000154612cb49190613970565b600160008973ffffffffffffffffffffffffffffffffffffffff1673ffffffffffffffffffffffffffffffffffffffff1681526020019081526020016000206000015487600354612d059190613b5a565b604051612d1493929190613bee565b60405180910390a382600160008673ffffffffffffffffffffffffffffffffffffffff1673ffffffffffffffffffffffffffffffffffffffff1681526020019081526020016000206000016000828254612d6e9190613970565b9250508190555050505050565b60008060009054906101000a900473ffffffffffffffffffffffffffffffffffffffff169050816000806101000a81548173ffffffffffffffffffffffffffffffffffffffff021916908373ffffffffffffffffffffffffffffffffffffffff1602179055508173ffffffffffffffffffffffffffffffffffffffff168173ffffffffffffffffffffffffffffffffffffffff167f8be0079c531659141344cd1fd0a4f28419497f9722a3daafe3b4186f6b6457e060405160405180910390a35050565b60006107b2841015612e5057600080fd5b600084905060008490506000849050600062253d8c60046064600c600e87612e789190613b5a565b612e829190614233565b61132488612e909190614088565b612e9a9190614088565b612ea49190614233565b6003612eb0919061411c565b612eba9190614233565b600c80600c600e88612ecc9190613b5a565b612ed69190614233565b612ee0919061411c565b600287612eed9190613b5a565b612ef79190613b5a565b61016f612f04919061411c565b612f0e9190614233565b6004600c600e88612f1f9190613b5a565b612f299190614233565b6112c089612f379190614088565b612f419190614088565b6105b5612f4e919061411c565b612f589190614233565b617d4b86612f669190613b5a565b612f709190614088565b612f7a9190614088565b612f849190613b5a565b612f8e9190613b5a565b9050809450505050509392505050565b600080600483612fae9190613d5d565b148015612fc857506000606483612fc59190613d5d565b14155b80612fe05750600061019083612fde9190613d5d565b145b9050919050565b6000819050919050565b612ffa81612fe7565b82525050565b6000819050919050565b61301381613000565b82525050565b600060408201905061302e6000830185612ff1565b61303b602083018461300a565b9392505050565b6000602082019050613057600083018461300a565b92915050565b600080fd5b600073ffffffffffffffffffffffffffffffffffffffff82169050919050565b600061308d82613062565b9050919050565b61309d81613082565b81146130a857600080fd5b50565b6000813590506130ba81613094565b92915050565b6130c981613000565b81146130d457600080fd5b50565b6000813590506130e6816130c0565b92915050565b600080600080600080600080610100898b03121561310d5761310c61305d565b5b600061311b8b828c016130ab565b985050602061312c8b828c016130d7565b975050604061313d8b828c016130d7565b965050606061314e8b828c016130d7565b955050608061315f8b828c016130d7565b94505060a06131708b828c016130d7565b93505060c06131818b828c016130d7565b92505060e06131928b828c016130d7565b9150509295985092959890939650565b600080604083850312156131b9576131b861305d565b5b60006131c7858286016130ab565b92505060206131d8858286016130d7565b9150509250929050565b6000602082840312156131f8576131f761305d565b5b6000613206848285016130ab565b91505092915050565b600081519050919050565b600082825260208201905092915050565b60005b8381101561324957808201518184015260208101905061322e565b83811115613258576000848401525b50505050565b6000601f19601f8301169050919050565b600061327a8261320f565b613284818561321a565b935061329481856020860161322b565b61329d8161325e565b840191505092915050565b60008115159050919050565b6132bd816132a8565b82525050565b6000610140820190506132d9600083018d61300a565b6132e6602083018c61300a565b6132f3604083018b61300a565b613300606083018a61300a565b61330d608083018961300a565b61331a60a083018861300a565b81810360c083015261332c818761326f565b905061333b60e083018661300a565b6133496101008301856132b4565b61335761012083018461300a565b9b9a5050505050505050505050565b600060a08201905061337b600083018861300a565b613388602083018761300a565b613395604083018661300a565b6133a2606083018561300a565b6133af608083018461300a565b9695505050505050565b600060c0820190506133ce600083018961300a565b6133db602083018861300a565b6133e8604083018761300a565b6133f5606083018661300a565b613402608083018561300a565b61340f60a083018461300a565b979650505050505050565b600061012082019050613430600083018c61300a565b61343d602083018b61300a565b61344a604083018a61300a565b613457606083018961300a565b613464608083018861300a565b61347160a083018761300a565b61347e60c08301866132b4565b61348b60e08301856132b4565b6134996101008301846132b4565b9a9950505050505050505050565b60006020820190506134bc6000830184612ff1565b92915050565b600080600080600060a086880312156134de576134dd61305d565b5b60006134ec888289016130d7565b95505060206134fd888289016130d7565b945050604061350e888289016130d7565b935050606061351f888289016130d7565b9250506080613530888289016130d7565b9150509295509295909350565b6000602082840312156135535761355261305d565b5b6000613561848285016130d7565b91505092915050565b61357381613082565b82525050565b600060208201905061358e600083018461356a565b92915050565b600061359f82613062565b9050919050565b6135af81613594565b81146135ba57600080fd5b50565b6000813590506135cc816135a6565b92915050565b600080604083850312156135e9576135e861305d565b5b60006135f7858286016135bd565b9250506020613608858286016130d7565b9150509250929050565b6000606082019050613627600083018661300a565b613634602083018561300a565b613641604083018461300a565b949350505050565b7f4f776e61626c653a2063616c6c6572206973206e6f7420746865206f776e6572600082015250565b600061367f60208361321a565b915061368a82613649565b602082019050919050565b600060208201905081810360008301526136ae81613672565b9050919050565b7f4e487b7100000000000000000000000000000000000000000000000000000000600052601160045260246000fd5b60006136ef82613000565b91506136fa83613000565b9250827fffffffffffffffffffffffffffffffffffffffffffffffffffffffffffffffff0382111561372f5761372e6136b5565b5b828201905092915050565b7f546865206461746520736574206973206e6f742066617220656e6f756768206960008201527f6e746f2074686520667574757265000000000000000000000000000000000000602082015250565b6000613796602e8361321a565b91506137a18261373a565b604082019050919050565b600060208201905081810360008301526137c581613789565b9050919050565b60006137d782613000565b91506137e283613000565b9250817fffffffffffffffffffffffffffffffffffffffffffffffffffffffffffffffff048311821515161561381b5761381a6136b5565b5b828202905092915050565b7f726563757272696e6720616c6c6f77616e6365206973206e6f7420616374697660008201527f6500000000000000000000000000000000000000000000000000000000000000602082015250565b600061388260218361321a565b915061388d82613826565b604082019050919050565b600060208201905081810360008301526138b181613875565b9050919050565b7f596f752061726520747279696e6720746f2072656c6f616420616e20616d6f7560008201527f6e742067726561746572207468616e207468617420736574206279207468652060208201527f6f776e6572000000000000000000000000000000000000000000000000000000604082015250565b600061393a60458361321a565b9150613945826138b8565b606082019050919050565b600060208201905081810360008301526139698161392d565b9050919050565b600061397b82613000565b915061398683613000565b925082821015613999576139986136b5565b5b828203905092915050565b7f497420697320746f6f206561726c790000000000000000000000000000000000600082015250565b60006139da600f8361321a565b91506139e5826139a4565b602082019050919050565b60006020820190508181036000830152613a09816139cd565b9050919050565b7f497420697320746f6f206561726c7920746f2072656c6f61642074686520616c60008201527f6c6f77616e636500000000000000000000000000000000000000000000000000602082015250565b6000613a6c60278361321a565b9150613a7782613a10565b604082019050919050565b60006020820190508181036000830152613a9b81613a5f565b9050919050565b7f546865206d6f737420726563656e7420726563757272696e6720616c6c6f776160008201527f6e63652077617320206f7220686173206e6f74206265656e206372656174656460208201527f2079657400000000000000000000000000000000000000000000000000000000604082015250565b6000613b2460448361321a565b9150613b2f82613aa2565b606082019050919050565b60006020820190508181036000830152613b5381613b17565b9050919050565b6000613b6582612fe7565b9150613b7083612fe7565b9250827f800000000000000000000000000000000000000000000000000000000000000001821260008412151615613bab57613baa6136b5565b5b827f7fffffffffffffffffffffffffffffffffffffffffffffffffffffffffffffff018213600084121615613be357613be26136b5565b5b828203905092915050565b6000606082019050613c03600083018661300a565b613c10602083018561300a565b613c1d6040830184612ff1565b949350505050565b7f43616e6e6f742072656e6f756e6365206f776e65727368697000000000000000600082015250565b6000613c5b60198361321a565b9150613c6682613c25565b602082019050919050565b60006020820190508181036000830152613c8a81613c4e565b9050919050565b7f5468652064617465206973206e6f7420696e2074686520667574757265000000600082015250565b6000613cc7601d8361321a565b9150613cd282613c91565b602082019050919050565b60006020820190508181036000830152613cf681613cba565b9050919050565b7f4e487b7100000000000000000000000000000000000000000000000000000000600052601260045260246000fd5b6000613d3782613000565b9150613d4283613000565b925082613d5257613d51613cfd565b5b828204905092915050565b6000613d6882613000565b9150613d7383613000565b925082613d8357613d82613cfd565b5b828206905092915050565b7f4461746520636f6e76657273696f6e206661696c656400000000000000000000600082015250565b6000613dc460168361321a565b9150613dcf82613d8e565b602082019050919050565b60006020820190508181036000830152613df381613db7565b9050919050565b7f54686520616d6f756e74206578636565647320796f757220616c6c6f77616e6360008201527f652e000000000000000000000000000000000000000000000000000000000000602082015250565b6000613e5660228361321a565b9150613e6182613dfa565b604082019050919050565b60006020820190508181036000830152613e8581613e49565b9050919050565b7f4e6f7420656e6f7567682066756e647320696e20736d61727420636f6e74726160008201527f63742e0000000000000000000000000000000000000000000000000000000000602082015250565b6000613ee860238361321a565b9150613ef382613e8c565b604082019050919050565b60006020820190508181036000830152613f1781613edb565b9050919050565b7f4f776e61626c653a206e6577206f776e657220697320746865207a65726f206160008201527f6464726573730000000000000000000000000000000000000000000000000000602082015250565b6000613f7a60268361321a565b9150613f8582613f1e565b604082019050919050565b60006020820190508181036000830152613fa981613f6d565b9050919050565b7f41646420646179732066756e6374696f6e206661696c65640000000000000000600082015250565b6000613fe660188361321a565b9150613ff182613fb0565b602082019050919050565b6000602082019050818103600083015261401581613fd9565b9050919050565b7f416464206d6f6e7468732066756e6374696f6e206661696c6564000000000000600082015250565b6000614052601a8361321a565b915061405d8261401c565b602082019050919050565b6000602082019050818103600083015261408181614045565b9050919050565b600061409382612fe7565b915061409e83612fe7565b9250817f7fffffffffffffffffffffffffffffffffffffffffffffffffffffffffffffff038313600083121516156140d9576140d86136b5565b5b817f8000000000000000000000000000000000000000000000000000000000000000038312600083121615614111576141106136b5565b5b828201905092915050565b600061412782612fe7565b915061413283612fe7565b9250827f7fffffffffffffffffffffffffffffffffffffffffffffffffffffffffffffff0482116000841360008413161615614171576141706136b5565b5b817f800000000000000000000000000000000000000000000000000000000000000005831260008412600084131616156141ae576141ad6136b5565b5b827f800000000000000000000000000000000000000000000000000000000000000005821260008413600084121616156141eb576141ea6136b5565b5b827f7fffffffffffffffffffffffffffffffffffffffffffffffffffffffffffffff0582126000841260008412161615614228576142276136b5565b5b828202905092915050565b600061423e82612fe7565b915061424983612fe7565b92508261425957614258613cfd565b5b600160000383147f800000000000000000000000000000000000000000000000000000000000000083141615614292576142916136b5565b5b82820590509291505056fea2646970667358221220acad7ab45727c1779fe84588bf1dc44b6371a1d32b4777746e37a73c2d4c3e7764736f6c63430008090033",
  "immutableReferences": {},
  "source": "pragma solidity 0.8.9;\r\nimport \"./AllowanceStructure.sol\";\r\n\r\ncontract SharedWallet is AllowanceStructure {\r\n    event BalanceChange(address indexed _ChangedBy, int _difference, uint _newBalance);\r\n    event PaymentOut(address indexed _beneficiary, uint _amount);\r\n    event PaymentIn(address indexed _from, uint _amount);\r\n\r\n      function PayOut(address payable _payee, uint _amount) public Permissions(_amount, _payee) {\r\n        require(_amount <= address(this).balance, \"Not enough funds in smart contract.\");\r\n       \r\n        // This section can allow the owner to transfer funds without affecting the recipient's allowance, but updates the allowance when a user calls the function.\r\n        //Since the owner can set the allowance at will this is not used for now.\r\n       //if(!TrueOwner()) {\r\n        //    UpdateAllowance(msg.sender, _amount);  \r\n         //   }\r\n         //else{...}\r\n         \r\n        UpdateAllowance(_payee, _amount);  \r\n        emit BalanceChange( _payee, _x - int(_amount), address(this).balance - _amount);\r\n        emit PaymentOut(_payee, _amount);\r\n        _payee.transfer(_amount);\r\n    }\r\n\r\n    //function _SetAllowance(address _payee, uint _amount) public onlyOwner {\r\n        //SetAllowance(_payee, _amount);\r\n    //}\r\n    \r\n    function renounceOwnership() public view override onlyOwner {\r\n        revert(\"Cannot renounce ownership\"); //This overrides the renounceOwnership function in Ownable.sol\r\n    }\r\n    \r\n    function ContractBalance() public view returns(uint) {\r\n        return address(this).balance;\r\n    }\r\n\r\n    function ViewAllowance(address _user) public view returns(uint) {\r\n        return allowance[_user]._allowance;\r\n    }\r\n\r\n    function ViewMyAllowance() public view returns(uint) {\r\n        return allowance[msg.sender]._allowance;\r\n    }\r\n\r\n    function rViewAllowance(address _user) public view returns(uint _year, uint _month, uint _day, uint _hour, uint _minute, uint _second) {\r\n        (_year, _month, _day, _hour, _minute, _second) = ts_to_dateTime(allowance[_user].initTime);\r\n        return(_year, _month, _day, _hour, _minute, _second);\r\n    }\r\n\r\n    //function ContractAddress() public view returns(address) {\r\n     //   return address(this);\r\n    //}\r\n    \r\n    receive() external payable {\r\n    emit BalanceChange(msg.sender, int(msg.value), address(this).balance);\r\n    emit PaymentIn(msg.sender, msg.value);\r\n    }\r\n}\r\n",
  "sourcePath": "C:\\Users\\nicba\\BN-Allowance-tst\\contracts\\SharedWallet.sol",
  "compiler": {
    "name": "solc",
    "version": "0.8.9+commit.e5eed63a.Emscripten.clang"
  },
  "schemaVersion": "3.4.6",
  "updatedAt": "2023-01-26T20:17:03.082Z",
  "networkType": "ethereum",
  "devdoc": {
    "kind": "dev",
    "methods": {
      "owner()": {
        "details": "Returns the address of the current owner."
      },
      "renounceOwnership()": {
        "details": "Leaves the contract without owner. It will not be possible to call `onlyOwner` functions anymore. Can only be called by the current owner. NOTE: Renouncing ownership will leave the contract without an owner, thereby removing any functionality that is only available to the owner."
      },
      "transferOwnership(address)": {
        "details": "Transfers ownership of the contract to a new account (`newOwner`). Can only be called by the current owner."
      }
    },
    "version": 1
  },
  "userdoc": {
    "kind": "user",
    "methods": {},
    "version": 1
  }
}