{
  "contractName": "SharedWallet",
  "abi": [
    {
      "anonymous": false,
      "inputs": [
        {
          "indexed": true,
          "internalType": "address",
          "name": "_forUser",
          "type": "address"
        },
        {
          "indexed": true,
          "internalType": "address",
          "name": "_ChangedBy",
          "type": "address"
        },
        {
          "indexed": false,
          "internalType": "uint256",
          "name": "_newAllowance",
          "type": "uint256"
        },
        {
          "indexed": false,
          "internalType": "uint256",
          "name": "_oldAllowance",
          "type": "uint256"
        },
        {
          "indexed": false,
          "internalType": "int256",
          "name": "_difference",
          "type": "int256"
        }
      ],
      "name": "AllowanceChange",
      "type": "event"
    },
    {
      "anonymous": false,
      "inputs": [
        {
          "indexed": true,
          "internalType": "address",
          "name": "_ChangedBy",
          "type": "address"
        },
        {
          "indexed": false,
          "internalType": "int256",
          "name": "_difference",
          "type": "int256"
        },
        {
          "indexed": false,
          "internalType": "uint256",
          "name": "_newBalance",
          "type": "uint256"
        }
      ],
      "name": "BalanceChange",
      "type": "event"
    },
    {
      "anonymous": false,
      "inputs": [
        {
          "indexed": true,
          "internalType": "address",
          "name": "previousOwner",
          "type": "address"
        },
        {
          "indexed": true,
          "internalType": "address",
          "name": "newOwner",
          "type": "address"
        }
      ],
      "name": "OwnershipTransferred",
      "type": "event"
    },
    {
      "anonymous": false,
      "inputs": [
        {
          "indexed": true,
          "internalType": "address",
          "name": "_from",
          "type": "address"
        },
        {
          "indexed": false,
          "internalType": "uint256",
          "name": "_amount",
          "type": "uint256"
        }
      ],
      "name": "PaymentIn",
      "type": "event"
    },
    {
      "anonymous": false,
      "inputs": [
        {
          "indexed": true,
          "internalType": "address",
          "name": "_beneficiary",
          "type": "address"
        },
        {
          "indexed": false,
          "internalType": "uint256",
          "name": "_amount",
          "type": "uint256"
        }
      ],
      "name": "PaymentOut",
      "type": "event"
    },
    {
      "inputs": [
        {
          "internalType": "address",
          "name": "_user",
          "type": "address"
        },
        {
          "internalType": "uint256",
          "name": "_amount",
          "type": "uint256"
        }
      ],
      "name": "ReloadAllowance",
      "outputs": [
        {
          "internalType": "uint256",
          "name": "",
          "type": "uint256"
        }
      ],
      "stateMutability": "nonpayable",
      "type": "function"
    },
    {
      "inputs": [
        {
          "internalType": "address",
          "name": "_user",
          "type": "address"
        },
        {
          "internalType": "uint256",
          "name": "_amount",
          "type": "uint256"
        }
      ],
      "name": "SetAllowance",
      "outputs": [],
      "stateMutability": "nonpayable",
      "type": "function"
    },
    {
      "inputs": [
        {
          "internalType": "address",
          "name": "",
          "type": "address"
        }
      ],
      "name": "allowance",
      "outputs": [
        {
          "internalType": "uint256",
          "name": "_allowance",
          "type": "uint256"
        },
        {
          "internalType": "uint256",
          "name": "repeatSec",
          "type": "uint256"
        },
        {
          "internalType": "uint256",
          "name": "_reloadAmount",
          "type": "uint256"
        },
        {
          "internalType": "uint256",
          "name": "i",
          "type": "uint256"
        },
        {
          "internalType": "uint256",
          "name": "j",
          "type": "uint256"
        },
        {
          "internalType": "uint256",
          "name": "initTime",
          "type": "uint256"
        },
        {
          "internalType": "bool",
          "name": "recurrance",
          "type": "bool"
        },
        {
          "internalType": "bool",
          "name": "DailyOrMonthly",
          "type": "bool"
        },
        {
          "internalType": "bool",
          "name": "isDeleted",
          "type": "bool"
        }
      ],
      "stateMutability": "view",
      "type": "function"
    },
    {
      "inputs": [
        {
          "internalType": "uint256",
          "name": "year",
          "type": "uint256"
        },
        {
          "internalType": "uint256",
          "name": "month",
          "type": "uint256"
        },
        {
          "internalType": "uint256",
          "name": "day",
          "type": "uint256"
        },
        {
          "internalType": "uint256",
          "name": "hour",
          "type": "uint256"
        },
        {
          "internalType": "uint256",
          "name": "minute",
          "type": "uint256"
        }
      ],
      "name": "diffSeconds",
      "outputs": [
        {
          "internalType": "uint256",
          "name": "_seconds",
          "type": "uint256"
        }
      ],
      "stateMutability": "view",
      "type": "function"
    },
    {
      "inputs": [],
      "name": "fri",
      "outputs": [
        {
          "internalType": "uint256",
          "name": "",
          "type": "uint256"
        }
      ],
      "stateMutability": "view",
      "type": "function"
    },
    {
      "inputs": [
        {
          "internalType": "address",
          "name": "_user",
          "type": "address"
        }
      ],
      "name": "getMap",
      "outputs": [
        {
          "internalType": "uint256",
          "name": "startYear",
          "type": "uint256"
        },
        {
          "internalType": "uint256",
          "name": "startMonth",
          "type": "uint256"
        },
        {
          "internalType": "uint256",
          "name": "startDay",
          "type": "uint256"
        },
        {
          "internalType": "uint256",
          "name": "startHour",
          "type": "uint256"
        },
        {
          "internalType": "uint256",
          "name": "startMinute",
          "type": "uint256"
        },
        {
          "internalType": "uint256",
          "name": "interval",
          "type": "uint256"
        },
        {
          "internalType": "string",
          "name": "period",
          "type": "string"
        },
        {
          "internalType": "uint256",
          "name": "reloadAmount",
          "type": "uint256"
        },
        {
          "internalType": "bool",
          "name": "deleteStatus",
          "type": "bool"
        },
        {
          "internalType": "uint256",
          "name": "repeatSeconds",
          "type": "uint256"
        }
      ],
      "stateMutability": "view",
      "type": "function"
    },
    {
      "inputs": [],
      "name": "mon",
      "outputs": [
        {
          "internalType": "uint256",
          "name": "",
          "type": "uint256"
        }
      ],
      "stateMutability": "view",
      "type": "function"
    },
    {
      "inputs": [],
      "name": "owner",
      "outputs": [
        {
          "internalType": "address",
          "name": "",
          "type": "address"
        }
      ],
      "stateMutability": "view",
      "type": "function"
    },
    {
      "inputs": [
        {
          "internalType": "address",
          "name": "",
          "type": "address"
        }
      ],
      "name": "reload",
      "outputs": [
        {
          "internalType": "uint256",
          "name": "_startYear",
          "type": "uint256"
        },
        {
          "internalType": "uint256",
          "name": "_startMonth",
          "type": "uint256"
        },
        {
          "internalType": "uint256",
          "name": "_startDay",
          "type": "uint256"
        },
        {
          "internalType": "uint256",
          "name": "_startHour",
          "type": "uint256"
        },
        {
          "internalType": "uint256",
          "name": "_startMinute",
          "type": "uint256"
        }
      ],
      "stateMutability": "view",
      "type": "function"
    },
    {
      "inputs": [],
      "name": "sat",
      "outputs": [
        {
          "internalType": "uint256",
          "name": "",
          "type": "uint256"
        }
      ],
      "stateMutability": "view",
      "type": "function"
    },
    {
      "inputs": [],
      "name": "sec_per_day",
      "outputs": [
        {
          "internalType": "uint256",
          "name": "",
          "type": "uint256"
        }
      ],
      "stateMutability": "view",
      "type": "function"
    },
    {
      "inputs": [],
      "name": "sec_per_hour",
      "outputs": [
        {
          "internalType": "uint256",
          "name": "",
          "type": "uint256"
        }
      ],
      "stateMutability": "view",
      "type": "function"
    },
    {
      "inputs": [],
      "name": "sec_per_minute",
      "outputs": [
        {
          "internalType": "uint256",
          "name": "",
          "type": "uint256"
        }
      ],
      "stateMutability": "view",
      "type": "function"
    },
    {
      "inputs": [
        {
          "internalType": "address",
          "name": "_user",
          "type": "address"
        },
        {
          "internalType": "uint256",
          "name": "amount",
          "type": "uint256"
        },
        {
          "internalType": "uint256",
          "name": "interval",
          "type": "uint256"
        },
        {
          "internalType": "uint256",
          "name": "startDay",
          "type": "uint256"
        },
        {
          "internalType": "uint256",
          "name": "startMonth",
          "type": "uint256"
        },
        {
          "internalType": "uint256",
          "name": "startYear",
          "type": "uint256"
        },
        {
          "internalType": "uint256",
          "name": "startHour",
          "type": "uint256"
        },
        {
          "internalType": "uint256",
          "name": "startMin",
          "type": "uint256"
        }
      ],
      "name": "setDaily",
      "outputs": [],
      "stateMutability": "nonpayable",
      "type": "function"
    },
    {
      "inputs": [
        {
          "internalType": "address",
          "name": "_user",
          "type": "address"
        },
        {
          "internalType": "uint256",
          "name": "amount",
          "type": "uint256"
        },
        {
          "internalType": "uint256",
          "name": "interval",
          "type": "uint256"
        },
        {
          "internalType": "uint256",
          "name": "startDay",
          "type": "uint256"
        },
        {
          "internalType": "uint256",
          "name": "startMonth",
          "type": "uint256"
        },
        {
          "internalType": "uint256",
          "name": "startYear",
          "type": "uint256"
        },
        {
          "internalType": "uint256",
          "name": "startHour",
          "type": "uint256"
        },
        {
          "internalType": "uint256",
          "name": "startMin",
          "type": "uint256"
        }
      ],
      "name": "setMonthly",
      "outputs": [],
      "stateMutability": "nonpayable",
      "type": "function"
    },
    {
      "inputs": [],
      "name": "start_19700101",
      "outputs": [
        {
          "internalType": "int256",
          "name": "",
          "type": "int256"
        }
      ],
      "stateMutability": "view",
      "type": "function"
    },
    {
      "inputs": [
        {
          "internalType": "address",
          "name": "_user",
          "type": "address"
        }
      ],
      "name": "stopReload",
      "outputs": [],
      "stateMutability": "nonpayable",
      "type": "function"
    },
    {
      "inputs": [],
      "name": "sun",
      "outputs": [
        {
          "internalType": "uint256",
          "name": "",
          "type": "uint256"
        }
      ],
      "stateMutability": "view",
      "type": "function"
    },
    {
      "inputs": [],
      "name": "thu",
      "outputs": [
        {
          "internalType": "uint256",
          "name": "",
          "type": "uint256"
        }
      ],
      "stateMutability": "view",
      "type": "function"
    },
    {
      "inputs": [
        {
          "internalType": "address",
          "name": "newOwner",
          "type": "address"
        }
      ],
      "name": "transferOwnership",
      "outputs": [],
      "stateMutability": "nonpayable",
      "type": "function"
    },
    {
      "inputs": [
        {
          "internalType": "uint256",
          "name": "timestamp",
          "type": "uint256"
        }
      ],
      "name": "ts_to_MY",
      "outputs": [
        {
          "internalType": "uint256",
          "name": "year",
          "type": "uint256"
        },
        {
          "internalType": "uint256",
          "name": "month",
          "type": "uint256"
        },
        {
          "internalType": "uint256",
          "name": "day",
          "type": "uint256"
        }
      ],
      "stateMutability": "pure",
      "type": "function"
    },
    {
      "inputs": [
        {
          "internalType": "uint256",
          "name": "timestamp",
          "type": "uint256"
        }
      ],
      "name": "ts_to_dateTime",
      "outputs": [
        {
          "internalType": "uint256",
          "name": "year",
          "type": "uint256"
        },
        {
          "internalType": "uint256",
          "name": "month",
          "type": "uint256"
        },
        {
          "internalType": "uint256",
          "name": "day",
          "type": "uint256"
        },
        {
          "internalType": "uint256",
          "name": "hour",
          "type": "uint256"
        },
        {
          "internalType": "uint256",
          "name": "minute",
          "type": "uint256"
        },
        {
          "internalType": "uint256",
          "name": "second",
          "type": "uint256"
        }
      ],
      "stateMutability": "pure",
      "type": "function"
    },
    {
      "inputs": [],
      "name": "tue",
      "outputs": [
        {
          "internalType": "uint256",
          "name": "",
          "type": "uint256"
        }
      ],
      "stateMutability": "view",
      "type": "function"
    },
    {
      "inputs": [],
      "name": "wed",
      "outputs": [
        {
          "internalType": "uint256",
          "name": "",
          "type": "uint256"
        }
      ],
      "stateMutability": "view",
      "type": "function"
    },
    {
      "stateMutability": "payable",
      "type": "receive"
    },
    {
      "inputs": [
        {
          "internalType": "address payable",
          "name": "_payee",
          "type": "address"
        },
        {
          "internalType": "uint256",
          "name": "_amount",
          "type": "uint256"
        }
      ],
      "name": "PayOut",
      "outputs": [],
      "stateMutability": "nonpayable",
      "type": "function"
    },
    {
      "inputs": [],
      "name": "renounceOwnership",
      "outputs": [],
      "stateMutability": "view",
      "type": "function"
    },
    {
      "inputs": [],
      "name": "ContractBalance",
      "outputs": [
        {
          "internalType": "uint256",
          "name": "",
          "type": "uint256"
        }
      ],
      "stateMutability": "view",
      "type": "function"
    },
    {
      "inputs": [
        {
          "internalType": "address",
          "name": "_user",
          "type": "address"
        }
      ],
      "name": "ViewAllowance",
      "outputs": [
        {
          "internalType": "uint256",
          "name": "",
          "type": "uint256"
        }
      ],
      "stateMutability": "view",
      "type": "function"
    },
    {
      "inputs": [],
      "name": "ViewMyAllowance",
      "outputs": [
        {
          "internalType": "uint256",
          "name": "",
          "type": "uint256"
        }
      ],
      "stateMutability": "view",
      "type": "function"
    },
    {
      "inputs": [
        {
          "internalType": "address",
          "name": "_user",
          "type": "address"
        }
      ],
      "name": "rViewAllowance",
      "outputs": [
        {
          "internalType": "uint256",
          "name": "_year",
          "type": "uint256"
        },
        {
          "internalType": "uint256",
          "name": "_month",
          "type": "uint256"
        },
        {
          "internalType": "uint256",
          "name": "_day",
          "type": "uint256"
        },
        {
          "internalType": "uint256",
          "name": "_hour",
          "type": "uint256"
        },
        {
          "internalType": "uint256",
          "name": "_minute",
          "type": "uint256"
        },
        {
          "internalType": "uint256",
          "name": "_second",
          "type": "uint256"
        }
      ],
      "stateMutability": "view",
      "type": "function"
    }
  ],
  "bytecode": "0x6080604052670de0b6b3a76400006004553480156200001d57600080fd5b506200003e620000326200004460201b60201c565b6200004c60201b60201c565b62000110565b600033905090565b60008060009054906101000a900473ffffffffffffffffffffffffffffffffffffffff169050816000806101000a81548173ffffffffffffffffffffffffffffffffffffffff021916908373ffffffffffffffffffffffffffffffffffffffff1602179055508173ffffffffffffffffffffffffffffffffffffffff168173ffffffffffffffffffffffffffffffffffffffff167f8be0079c531659141344cd1fd0a4f28419497f9722a3daafe3b4186f6b6457e060405160405180910390a35050565b613ea380620001206000396000f3fe6080604052600436106101d15760003560e01c806368aee9e8116100f75780639735b0cb11610095578063d9b002aa11610064578063d9b002aa1461076c578063e7c6eade14610797578063ecc0f2fe146107c2578063f2fde38b146107ff57610276565b80639735b0cb146106ae578063a3108ca0146106d7578063a789042e14610702578063cff6220a1461072d57610276565b8063805760e6116100d1578063805760e6146105eb5780638c6f4e8b146106165780638cf705fd146106415780638da5cb5b1461068357610276565b806368aee9e81461056c578063715018a6146105975780637900dfc6146105ae57610276565b806328788bd41161016f5780633bfe74671161013e5780633bfe7467146104aa5780633e5beab9146104d35780633e7279a31461051857806366073b9f1461054157610276565b806328788bd4146103e75780633339b3af14610429578063341ad5a9146104545780633b6680591461047f57610276565b80631947bd2f116101ab5780631947bd2f1461030c57806321f4437714610352578063221b3ff21461039357806324e0ac2c146103be57610276565b80631038b8d11461027b578063154c5712146102a457806317b5bb32146102e157610276565b36610276573373ffffffffffffffffffffffffffffffffffffffff167f841c61b7bbf0fcca78b403498e7371c8fb7c2923fc1d896647386bc226c2077b344760405161021e929190612ce7565b60405180910390a23373ffffffffffffffffffffffffffffffffffffffff167f0dac9d2c2dc993cdd4938098c717f417231cfb35bec527416c08b6666b4779543460405161026c9190612d10565b60405180910390a2005b600080fd5b34801561028757600080fd5b506102a2600480360381019061029d9190612dba565b610828565b005b3480156102b057600080fd5b506102cb60048036038101906102c69190612e70565b610da0565b6040516102d89190612d10565b60405180910390f35b3480156102ed57600080fd5b506102f66111ce565b6040516103039190612d10565b60405180910390f35b34801561031857600080fd5b50610333600480360381019061032e9190612eb0565b6111d3565b6040516103499a99989796959493929190612f91565b60405180910390f35b34801561035e57600080fd5b5061037960048036038101906103749190612eb0565b6115d1565b60405161038a959493929190613034565b60405180910390f35b34801561039f57600080fd5b506103a8611607565b6040516103b59190612d10565b60405180910390f35b3480156103ca57600080fd5b506103e560048036038101906103e09190612dba565b611651565b005b3480156103f357600080fd5b5061040e60048036038101906104099190612eb0565b611b60565b60405161042096959493929190613087565b60405180910390f35b34801561043557600080fd5b5061043e611bd5565b60405161044b9190612d10565b60405180910390f35b34801561046057600080fd5b50610469611bda565b6040516104769190612d10565b60405180910390f35b34801561048b57600080fd5b50610494611bdf565b6040516104a19190612d10565b60405180910390f35b3480156104b657600080fd5b506104d160048036038101906104cc9190612eb0565b611be7565b005b3480156104df57600080fd5b506104fa60048036038101906104f59190612eb0565b611c44565b60405161050f999897969594939291906130e8565b60405180910390f35b34801561052457600080fd5b5061053f600480360381019061053a9190612e70565b611cb9565b005b34801561054d57600080fd5b50610556611e8a565b6040516105639190613175565b60405180910390f35b34801561057857600080fd5b50610581611e91565b60405161058e9190612d10565b60405180910390f35b3480156105a357600080fd5b506105ac611e96565b005b3480156105ba57600080fd5b506105d560048036038101906105d09190613190565b611f4d565b6040516105e29190612d10565b60405180910390f35b3480156105f757600080fd5b50610600611fd4565b60405161060d9190612d10565b60405180910390f35b34801561062257600080fd5b5061062b611fda565b6040516106389190612d10565b60405180910390f35b34801561064d57600080fd5b506106686004803603810190610663919061320b565b611fe1565b60405161067a96959493929190613087565b60405180910390f35b34801561068f57600080fd5b506106986120b9565b6040516106a59190613247565b60405180910390f35b3480156106ba57600080fd5b506106d560048036038101906106d091906132a0565b6120e2565b005b3480156106e357600080fd5b506106ec6122b9565b6040516106f99190612d10565b60405180910390f35b34801561070e57600080fd5b506107176122be565b6040516107249190612d10565b60405180910390f35b34801561073957600080fd5b50610754600480360381019061074f919061320b565b6122c3565b604051610763939291906132e0565b60405180910390f35b34801561077857600080fd5b50610781612343565b60405161078e9190612d10565b60405180910390f35b3480156107a357600080fd5b506107ac612348565b6040516107b99190612d10565b60405180910390f35b3480156107ce57600080fd5b506107e960048036038101906107e49190612eb0565b61234d565b6040516107f69190612d10565b60405180910390f35b34801561080b57600080fd5b5061082660048036038101906108219190612eb0565b612399565b005b610830612491565b73ffffffffffffffffffffffffffffffffffffffff1661084e6120b9565b73ffffffffffffffffffffffffffffffffffffffff16146108a4576040517f08c379a000000000000000000000000000000000000000000000000000000000815260040161089b90613363565b60405180910390fd5b60006005836108b391906133b2565b90506108c484868884866000612499565b600160008b73ffffffffffffffffffffffffffffffffffffffff1673ffffffffffffffffffffffffffffffffffffffff1681526020019081526020016000206005018190555042600160008b73ffffffffffffffffffffffffffffffffffffffff1673ffffffffffffffffffffffffffffffffffffffff16815260200190815260200160002060050154101561098f576040517f08c379a00000000000000000000000000000000000000000000000000000000081526004016109869061347a565b60405180910390fd5b87600160008b73ffffffffffffffffffffffffffffffffffffffff1673ffffffffffffffffffffffffffffffffffffffff1681526020019081526020016000206002018190555083600260008b73ffffffffffffffffffffffffffffffffffffffff1673ffffffffffffffffffffffffffffffffffffffff1681526020019081526020016000206000018190555084600260008b73ffffffffffffffffffffffffffffffffffffffff1673ffffffffffffffffffffffffffffffffffffffff1681526020019081526020016000206001018190555085600260008b73ffffffffffffffffffffffffffffffffffffffff1673ffffffffffffffffffffffffffffffffffffffff1681526020019081526020016000206002018190555082600260008b73ffffffffffffffffffffffffffffffffffffffff1673ffffffffffffffffffffffffffffffffffffffff1681526020019081526020016000206003018190555081600260008b73ffffffffffffffffffffffffffffffffffffffff1673ffffffffffffffffffffffffffffffffffffffff168152602001908152602001600020600401819055506000600160008b73ffffffffffffffffffffffffffffffffffffffff1673ffffffffffffffffffffffffffffffffffffffff16815260200190815260200160002060060160016101000a81548160ff02191690831515021790555060018060008b73ffffffffffffffffffffffffffffffffffffffff1673ffffffffffffffffffffffffffffffffffffffff16815260200190815260200160002060060160006101000a81548160ff02191690831515021790555086600160008b73ffffffffffffffffffffffffffffffffffffffff1673ffffffffffffffffffffffffffffffffffffffff168152602001908152602001600020600301819055506000600160008b73ffffffffffffffffffffffffffffffffffffffff1673ffffffffffffffffffffffffffffffffffffffff168152602001908152602001600020600401819055506000600160008b73ffffffffffffffffffffffffffffffffffffffff1673ffffffffffffffffffffffffffffffffffffffff16815260200190815260200160002060060160026101000a81548160ff0219169083151502179055506000806000610d28600160008e73ffffffffffffffffffffffffffffffffffffffff1673ffffffffffffffffffffffffffffffffffffffff168152602001908152602001600020600501546122c3565b9250925092506000610d3a84846124fa565b90506201518081610d4b919061349a565b600160008f73ffffffffffffffffffffffffffffffffffffffff1673ffffffffffffffffffffffffffffffffffffffff1681526020019081526020016000206001018190555050505050505050505050505050565b600060011515600160008573ffffffffffffffffffffffffffffffffffffffff1673ffffffffffffffffffffffffffffffffffffffff16815260200190815260200160002060060160009054906101000a900460ff161515148015610e58575060001515600160008573ffffffffffffffffffffffffffffffffffffffff1673ffffffffffffffffffffffffffffffffffffffff16815260200190815260200160002060060160029054906101000a900460ff161515145b610e97576040517f08c379a0000000000000000000000000000000000000000000000000000000008152600401610e8e90613566565b60405180910390fd5b81600160008573ffffffffffffffffffffffffffffffffffffffff1673ffffffffffffffffffffffffffffffffffffffff168152602001908152602001600020600201541015610f1c576040517f08c379a0000000000000000000000000000000000000000000000000000000008152600401610f139061361e565b60405180910390fd5b60011515600160008573ffffffffffffffffffffffffffffffffffffffff1673ffffffffffffffffffffffffffffffffffffffff16815260200190815260200160002060060160019054906101000a900460ff161515141561117d576000611055600160008673ffffffffffffffffffffffffffffffffffffffff1673ffffffffffffffffffffffffffffffffffffffff16815260200190815260200160002060050154600160008773ffffffffffffffffffffffffffffffffffffffff1673ffffffffffffffffffffffffffffffffffffffff16815260200190815260200160002060040154600160008873ffffffffffffffffffffffffffffffffffffffff1673ffffffffffffffffffffffffffffffffffffffff16815260200190815260200160002060030154611050919061349a565b612585565b90506000610e106005611068919061349a565b82611073919061363e565b905060784261108291906133b2565b8111156110c4576040517f08c379a00000000000000000000000000000000000000000000000000000000081526004016110bb906136be565b60405180910390fd5b83600160008773ffffffffffffffffffffffffffffffffffffffff1673ffffffffffffffffffffffffffffffffffffffff168152602001908152602001600020600001600082825461111691906133b2565b9250508190555060018060008773ffffffffffffffffffffffffffffffffffffffff1673ffffffffffffffffffffffffffffffffffffffff168152602001908152602001600020600401600082825461116f91906133b2565b9250508190555050506111c7565b600160008473ffffffffffffffffffffffffffffffffffffffff1673ffffffffffffffffffffffffffffffffffffffff1681526020019081526020016000206004015490506111c8565b5b92915050565b600781565b60008060008060008060606000806000801515600160008d73ffffffffffffffffffffffffffffffffffffffff1673ffffffffffffffffffffffffffffffffffffffff16815260200190815260200160002060060160029054906101000a900460ff16151514611278576040517f08c379a000000000000000000000000000000000000000000000000000000000815260040161126f90613776565b60405180910390fd5b600260008c73ffffffffffffffffffffffffffffffffffffffff1673ffffffffffffffffffffffffffffffffffffffff168152602001908152602001600020600001549950600260008c73ffffffffffffffffffffffffffffffffffffffff1673ffffffffffffffffffffffffffffffffffffffff168152602001908152602001600020600101549850600260008c73ffffffffffffffffffffffffffffffffffffffff1673ffffffffffffffffffffffffffffffffffffffff168152602001908152602001600020600201549750600260008c73ffffffffffffffffffffffffffffffffffffffff1673ffffffffffffffffffffffffffffffffffffffff168152602001908152602001600020600301549650600260008c73ffffffffffffffffffffffffffffffffffffffff1673ffffffffffffffffffffffffffffffffffffffff168152602001908152602001600020600401549550600160008c73ffffffffffffffffffffffffffffffffffffffff1673ffffffffffffffffffffffffffffffffffffffff16815260200190815260200160002060030154945060011515600160008d73ffffffffffffffffffffffffffffffffffffffff1673ffffffffffffffffffffffffffffffffffffffff16815260200190815260200160002060060160019054906101000a900460ff16151514156114af576040518060400160405280600681526020017f446179287329000000000000000000000000000000000000000000000000000081525093506114e8565b6040518060400160405280600881526020017f4d6f6e746828732900000000000000000000000000000000000000000000000081525093505b600160008c73ffffffffffffffffffffffffffffffffffffffff1673ffffffffffffffffffffffffffffffffffffffff168152602001908152602001600020600201549250600160008c73ffffffffffffffffffffffffffffffffffffffff1673ffffffffffffffffffffffffffffffffffffffff16815260200190815260200160002060060160029054906101000a900460ff169150600160008c73ffffffffffffffffffffffffffffffffffffffff1673ffffffffffffffffffffffffffffffffffffffff1681526020019081526020016000206001015490509193959799509193959799565b60026020528060005260406000206000915090508060000154908060010154908060020154908060030154908060040154905085565b6000600160003373ffffffffffffffffffffffffffffffffffffffff1673ffffffffffffffffffffffffffffffffffffffff16815260200190815260200160002060000154905090565b611659612491565b73ffffffffffffffffffffffffffffffffffffffff166116776120b9565b73ffffffffffffffffffffffffffffffffffffffff16146116cd576040517f08c379a00000000000000000000000000000000000000000000000000000000081526004016116c490613363565b60405180910390fd5b60006005836116dc91906133b2565b90506116ed84868884866000612499565b600160008b73ffffffffffffffffffffffffffffffffffffffff1673ffffffffffffffffffffffffffffffffffffffff1681526020019081526020016000206005018190555042600160008b73ffffffffffffffffffffffffffffffffffffffff1673ffffffffffffffffffffffffffffffffffffffff1681526020019081526020016000206005015410156117b8576040517f08c379a00000000000000000000000000000000000000000000000000000000081526004016117af9061347a565b60405180910390fd5b87600160008b73ffffffffffffffffffffffffffffffffffffffff1673ffffffffffffffffffffffffffffffffffffffff1681526020019081526020016000206002018190555083600260008b73ffffffffffffffffffffffffffffffffffffffff1673ffffffffffffffffffffffffffffffffffffffff1681526020019081526020016000206000018190555084600260008b73ffffffffffffffffffffffffffffffffffffffff1673ffffffffffffffffffffffffffffffffffffffff1681526020019081526020016000206001018190555085600260008b73ffffffffffffffffffffffffffffffffffffffff1673ffffffffffffffffffffffffffffffffffffffff1681526020019081526020016000206002018190555082600260008b73ffffffffffffffffffffffffffffffffffffffff1673ffffffffffffffffffffffffffffffffffffffff1681526020019081526020016000206003018190555081600260008b73ffffffffffffffffffffffffffffffffffffffff1673ffffffffffffffffffffffffffffffffffffffff1681526020019081526020016000206004018190555060018060008b73ffffffffffffffffffffffffffffffffffffffff1673ffffffffffffffffffffffffffffffffffffffff16815260200190815260200160002060060160016101000a81548160ff02191690831515021790555060018060008b73ffffffffffffffffffffffffffffffffffffffff1673ffffffffffffffffffffffffffffffffffffffff16815260200190815260200160002060060160006101000a81548160ff02191690831515021790555086600160008b73ffffffffffffffffffffffffffffffffffffffff1673ffffffffffffffffffffffffffffffffffffffff168152602001908152602001600020600301819055506000600160008b73ffffffffffffffffffffffffffffffffffffffff1673ffffffffffffffffffffffffffffffffffffffff168152602001908152602001600020600401819055506000600160008b73ffffffffffffffffffffffffffffffffffffffff1673ffffffffffffffffffffffffffffffffffffffff16815260200190815260200160002060060160026101000a81548160ff0219169083151502179055506201518087611b0f919061349a565b600160008b73ffffffffffffffffffffffffffffffffffffffff1673ffffffffffffffffffffffffffffffffffffffff16815260200190815260200160002060010181905550505050505050505050565b600080600080600080611bb4600160008973ffffffffffffffffffffffffffffffffffffffff1673ffffffffffffffffffffffffffffffffffffffff16815260200190815260200160002060050154611fe1565b809650819750829850839950849a50859b5050505050505091939550919395565b600581565b600681565b600047905090565b60018060008373ffffffffffffffffffffffffffffffffffffffff1673ffffffffffffffffffffffffffffffffffffffff16815260200190815260200160002060060160026101000a81548160ff02191690831515021790555050565b60016020528060005260406000206000915090508060000154908060010154908060020154908060030154908060040154908060050154908060060160009054906101000a900460ff16908060060160019054906101000a900460ff16908060060160029054906101000a900460ff16905089565b611cc1612491565b73ffffffffffffffffffffffffffffffffffffffff16611cdf6120b9565b73ffffffffffffffffffffffffffffffffffffffff1614611d35576040517f08c379a0000000000000000000000000000000000000000000000000000000008152600401611d2c90613363565b60405180910390fd5b80600160008473ffffffffffffffffffffffffffffffffffffffff1673ffffffffffffffffffffffffffffffffffffffff1681526020019081526020016000206000016000828254611d8791906133b2565b925050819055503373ffffffffffffffffffffffffffffffffffffffff168273ffffffffffffffffffffffffffffffffffffffff167fc01efbe04c5ee8fdaf278af7f682dbebe6c0c2b564f552548d5a88b2b8de7e0e83600160008773ffffffffffffffffffffffffffffffffffffffff1673ffffffffffffffffffffffffffffffffffffffff16815260200190815260200160002060000154600160008873ffffffffffffffffffffffffffffffffffffffff1673ffffffffffffffffffffffffffffffffffffffff1681526020019081526020016000206000015486611e6f9190613796565b604051611e7e9392919061382a565b60405180910390a35050565b62253d8c81565b600381565b611e9e612491565b73ffffffffffffffffffffffffffffffffffffffff16611ebc6120b9565b73ffffffffffffffffffffffffffffffffffffffff1614611f12576040517f08c379a0000000000000000000000000000000000000000000000000000000008152600401611f0990613363565b60405180910390fd5b6040517f08c379a0000000000000000000000000000000000000000000000000000000008152600401611f44906138ad565b60405180910390fd5b6000804290506000600585611f6291906133b2565b90506000611f7589898985896000612499565b905080831115611fba576040517f08c379a0000000000000000000000000000000000000000000000000000000008152600401611fb190613919565b60405180910390fd5b8281611fc6919061363e565b935050505095945050505050565b610e1081565b6201518081565b6000806000806000806120016201518088611ffc9190613968565b6125ec565b8096508197508298505050506000620151808861201e9190613999565b9050610e108161202e9190613968565b9350610e108161203e9190613999565b9050603c8161204d9190613968565b9250603c8161205c9190613999565b91506001151561206d88888861278b565b1515146120af576040517f08c379a00000000000000000000000000000000000000000000000000000000081526004016120a690613a16565b60405180910390fd5b5091939550919395565b60008060009054906101000a900473ffffffffffffffffffffffffffffffffffffffff16905090565b808281600160008373ffffffffffffffffffffffffffffffffffffffff1673ffffffffffffffffffffffffffffffffffffffff168152602001908152602001600020600001541015612169576040517f08c379a000000000000000000000000000000000000000000000000000000000815260040161216090613aa8565b60405180910390fd5b478311156121ac576040517f08c379a00000000000000000000000000000000000000000000000000000000081526004016121a390613b3a565b60405180910390fd5b6121b684846127e2565b8373ffffffffffffffffffffffffffffffffffffffff167f841c61b7bbf0fcca78b403498e7371c8fb7c2923fc1d896647386bc226c2077b846003546121fc9190613796565b8547612208919061363e565b604051612216929190612ce7565b60405180910390a28373ffffffffffffffffffffffffffffffffffffffff167fc0e95c944cb17925f20927080c22961d19afb50de205b7174a30428be9c80df6846040516122649190612d10565b60405180910390a28373ffffffffffffffffffffffffffffffffffffffff166108fc849081150290604051600060405180830381858888f193505050501580156122b2573d6000803e3d6000fd5b5050505050565b600281565b603c81565b60008060006122df62015180856122da9190613968565b6125ec565b809350819450829550505050600115156122fa84848461278b565b15151461233c576040517f08c379a000000000000000000000000000000000000000000000000000000000815260040161233390613a16565b60405180910390fd5b9193909250565b600481565b600181565b6000600160008373ffffffffffffffffffffffffffffffffffffffff1673ffffffffffffffffffffffffffffffffffffffff168152602001908152602001600020600001549050919050565b6123a1612491565b73ffffffffffffffffffffffffffffffffffffffff166123bf6120b9565b73ffffffffffffffffffffffffffffffffffffffff1614612415576040517f08c379a000000000000000000000000000000000000000000000000000000000815260040161240c90613363565b60405180910390fd5b600073ffffffffffffffffffffffffffffffffffffffff168173ffffffffffffffffffffffffffffffffffffffff161415612485576040517f08c379a000000000000000000000000000000000000000000000000000000000815260040161247c90613bcc565b60405180910390fd5b61248e81612a49565b50565b600033905090565b600081603c846124a9919061349a565b610e10866124b7919061349a565b620151806124c68b8b8b612b0d565b6124d0919061349a565b6124da91906133b2565b6124e491906133b2565b6124ee91906133b2565b90509695505050505050565b6000600182148061250b5750600382145b806125165750600582145b806125215750600782145b8061252c5750600882145b806125375750600a82145b806125425750600c82145b1561255057601f905061257f565b6002821461256157601e905061257e565b61256a83612c6c565b61257557601c612578565b601d5b60ff1690505b5b92915050565b60006201518082612596919061349a565b836125a191906133b2565b9050828110156125e6576040517f08c379a00000000000000000000000000000000000000000000000000000000081526004016125dd90613c38565b60405180910390fd5b92915050565b600080600080849050600062253d8c62010bd98361260a9190613c58565b6126149190613c58565b9050600062023ab18260046126299190613cec565b6126339190613e03565b9050600460038262023ab16126489190613cec565b6126529190613c58565b61265c9190613e03565b826126679190613796565b9150600062164b0960018461267c9190613c58565b610fa06126899190613cec565b6126939190613e03565b9050601f6004826105b56126a79190613cec565b6126b19190613e03565b846126bc9190613796565b6126c69190613c58565b9250600061098f8460506126da9190613cec565b6126e49190613e03565b9050600060508261098f6126f89190613cec565b6127029190613e03565b8561270d9190613796565b9050600b8261271c9190613e03565b945084600c61272b9190613cec565b6002836127389190613c58565b6127429190613796565b915084836031866127539190613796565b606461275f9190613cec565b6127699190613c58565b6127739190613c58565b92508298508197508096505050505050509193909250565b60006107b2841015801561279f5750600083115b80156127ac5750600c8311155b156127db5760006127bd85856124fa565b90506000831180156127cf5750808311155b156127d957600191505b505b9392505050565b6127ea612491565b73ffffffffffffffffffffffffffffffffffffffff166128086120b9565b73ffffffffffffffffffffffffffffffffffffffff161461285e576040517f08c379a000000000000000000000000000000000000000000000000000000000815260040161285590613363565b60405180910390fd5b808281600160008373ffffffffffffffffffffffffffffffffffffffff1673ffffffffffffffffffffffffffffffffffffffff1681526020019081526020016000206000015410156128e5576040517f08c379a00000000000000000000000000000000000000000000000000000000081526004016128dc90613aa8565b60405180910390fd5b3373ffffffffffffffffffffffffffffffffffffffff168473ffffffffffffffffffffffffffffffffffffffff167fc01efbe04c5ee8fdaf278af7f682dbebe6c0c2b564f552548d5a88b2b8de7e0e85600160008973ffffffffffffffffffffffffffffffffffffffff1673ffffffffffffffffffffffffffffffffffffffff16815260200190815260200160002060000154612982919061363e565b600160008973ffffffffffffffffffffffffffffffffffffffff1673ffffffffffffffffffffffffffffffffffffffff16815260200190815260200160002060000154876003546129d39190613796565b6040516129e29392919061382a565b60405180910390a382600160008673ffffffffffffffffffffffffffffffffffffffff1673ffffffffffffffffffffffffffffffffffffffff1681526020019081526020016000206000016000828254612a3c919061363e565b9250508190555050505050565b60008060009054906101000a900473ffffffffffffffffffffffffffffffffffffffff169050816000806101000a81548173ffffffffffffffffffffffffffffffffffffffff021916908373ffffffffffffffffffffffffffffffffffffffff1602179055508173ffffffffffffffffffffffffffffffffffffffff168173ffffffffffffffffffffffffffffffffffffffff167f8be0079c531659141344cd1fd0a4f28419497f9722a3daafe3b4186f6b6457e060405160405180910390a35050565b60006107b2841015612b1e57600080fd5b600084905060008490506000849050600062253d8c60046064600c600e87612b469190613796565b612b509190613e03565b61132488612b5e9190613c58565b612b689190613c58565b612b729190613e03565b6003612b7e9190613cec565b612b889190613e03565b600c80600c600e88612b9a9190613796565b612ba49190613e03565b612bae9190613cec565b600287612bbb9190613796565b612bc59190613796565b61016f612bd29190613cec565b612bdc9190613e03565b6004600c600e88612bed9190613796565b612bf79190613e03565b6112c089612c059190613c58565b612c0f9190613c58565b6105b5612c1c9190613cec565b612c269190613e03565b617d4b86612c349190613796565b612c3e9190613c58565b612c489190613c58565b612c529190613796565b612c5c9190613796565b9050809450505050509392505050565b600080600483612c7c9190613999565b148015612c9657506000606483612c939190613999565b14155b80612cae5750600061019083612cac9190613999565b145b9050919050565b6000819050919050565b612cc881612cb5565b82525050565b6000819050919050565b612ce181612cce565b82525050565b6000604082019050612cfc6000830185612cbf565b612d096020830184612cd8565b9392505050565b6000602082019050612d256000830184612cd8565b92915050565b600080fd5b600073ffffffffffffffffffffffffffffffffffffffff82169050919050565b6000612d5b82612d30565b9050919050565b612d6b81612d50565b8114612d7657600080fd5b50565b600081359050612d8881612d62565b92915050565b612d9781612cce565b8114612da257600080fd5b50565b600081359050612db481612d8e565b92915050565b600080600080600080600080610100898b031215612ddb57612dda612d2b565b5b6000612de98b828c01612d79565b9850506020612dfa8b828c01612da5565b9750506040612e0b8b828c01612da5565b9650506060612e1c8b828c01612da5565b9550506080612e2d8b828c01612da5565b94505060a0612e3e8b828c01612da5565b93505060c0612e4f8b828c01612da5565b92505060e0612e608b828c01612da5565b9150509295985092959890939650565b60008060408385031215612e8757612e86612d2b565b5b6000612e9585828601612d79565b9250506020612ea685828601612da5565b9150509250929050565b600060208284031215612ec657612ec5612d2b565b5b6000612ed484828501612d79565b91505092915050565b600081519050919050565b600082825260208201905092915050565b60005b83811015612f17578082015181840152602081019050612efc565b83811115612f26576000848401525b50505050565b6000601f19601f8301169050919050565b6000612f4882612edd565b612f528185612ee8565b9350612f62818560208601612ef9565b612f6b81612f2c565b840191505092915050565b60008115159050919050565b612f8b81612f76565b82525050565b600061014082019050612fa7600083018d612cd8565b612fb4602083018c612cd8565b612fc1604083018b612cd8565b612fce606083018a612cd8565b612fdb6080830189612cd8565b612fe860a0830188612cd8565b81810360c0830152612ffa8187612f3d565b905061300960e0830186612cd8565b613017610100830185612f82565b613025610120830184612cd8565b9b9a5050505050505050505050565b600060a0820190506130496000830188612cd8565b6130566020830187612cd8565b6130636040830186612cd8565b6130706060830185612cd8565b61307d6080830184612cd8565b9695505050505050565b600060c08201905061309c6000830189612cd8565b6130a96020830188612cd8565b6130b66040830187612cd8565b6130c36060830186612cd8565b6130d06080830185612cd8565b6130dd60a0830184612cd8565b979650505050505050565b6000610120820190506130fe600083018c612cd8565b61310b602083018b612cd8565b613118604083018a612cd8565b6131256060830189612cd8565b6131326080830188612cd8565b61313f60a0830187612cd8565b61314c60c0830186612f82565b61315960e0830185612f82565b613167610100830184612f82565b9a9950505050505050505050565b600060208201905061318a6000830184612cbf565b92915050565b600080600080600060a086880312156131ac576131ab612d2b565b5b60006131ba88828901612da5565b95505060206131cb88828901612da5565b94505060406131dc88828901612da5565b93505060606131ed88828901612da5565b92505060806131fe88828901612da5565b9150509295509295909350565b60006020828403121561322157613220612d2b565b5b600061322f84828501612da5565b91505092915050565b61324181612d50565b82525050565b600060208201905061325c6000830184613238565b92915050565b600061326d82612d30565b9050919050565b61327d81613262565b811461328857600080fd5b50565b60008135905061329a81613274565b92915050565b600080604083850312156132b7576132b6612d2b565b5b60006132c58582860161328b565b92505060206132d685828601612da5565b9150509250929050565b60006060820190506132f56000830186612cd8565b6133026020830185612cd8565b61330f6040830184612cd8565b949350505050565b7f4f776e61626c653a2063616c6c6572206973206e6f7420746865206f776e6572600082015250565b600061334d602083612ee8565b915061335882613317565b602082019050919050565b6000602082019050818103600083015261337c81613340565b9050919050565b7f4e487b7100000000000000000000000000000000000000000000000000000000600052601160045260246000fd5b60006133bd82612cce565b91506133c883612cce565b9250827fffffffffffffffffffffffffffffffffffffffffffffffffffffffffffffffff038211156133fd576133fc613383565b5b828201905092915050565b7f546865206461746520736574206973206e6f742066617220656e6f756768206960008201527f6e746f2074686520667574757265000000000000000000000000000000000000602082015250565b6000613464602e83612ee8565b915061346f82613408565b604082019050919050565b6000602082019050818103600083015261349381613457565b9050919050565b60006134a582612cce565b91506134b083612cce565b9250817fffffffffffffffffffffffffffffffffffffffffffffffffffffffffffffffff04831182151516156134e9576134e8613383565b5b828202905092915050565b7f726563757272696e6720616c6c6f77616e6365206973206e6f7420616374697660008201527f6500000000000000000000000000000000000000000000000000000000000000602082015250565b6000613550602183612ee8565b915061355b826134f4565b604082019050919050565b6000602082019050818103600083015261357f81613543565b9050919050565b7f596f752061726520747279696e6720746f2072656c6f616420616e20616d6f7560008201527f6e742067726561746572207468616e207468617420736574206279207468652060208201527f6f776e6572000000000000000000000000000000000000000000000000000000604082015250565b6000613608604583612ee8565b915061361382613586565b606082019050919050565b60006020820190508181036000830152613637816135fb565b9050919050565b600061364982612cce565b915061365483612cce565b92508282101561366757613666613383565b5b828203905092915050565b7f497420697320746f6f206561726c790000000000000000000000000000000000600082015250565b60006136a8600f83612ee8565b91506136b382613672565b602082019050919050565b600060208201905081810360008301526136d78161369b565b9050919050565b7f546865206d6f737420726563656e7420726563757272696e6720616c6c6f776160008201527f6e63652077617320206f7220686173206e6f74206265656e206372656174656460208201527f2079657400000000000000000000000000000000000000000000000000000000604082015250565b6000613760604483612ee8565b915061376b826136de565b606082019050919050565b6000602082019050818103600083015261378f81613753565b9050919050565b60006137a182612cb5565b91506137ac83612cb5565b9250827f8000000000000000000000000000000000000000000000000000000000000000018212600084121516156137e7576137e6613383565b5b827f7fffffffffffffffffffffffffffffffffffffffffffffffffffffffffffffff01821360008412161561381f5761381e613383565b5b828203905092915050565b600060608201905061383f6000830186612cd8565b61384c6020830185612cd8565b6138596040830184612cbf565b949350505050565b7f43616e6e6f742072656e6f756e6365206f776e65727368697000000000000000600082015250565b6000613897601983612ee8565b91506138a282613861565b602082019050919050565b600060208201905081810360008301526138c68161388a565b9050919050565b7f5468652064617465206973206e6f7420696e2074686520667574757265000000600082015250565b6000613903601d83612ee8565b915061390e826138cd565b602082019050919050565b60006020820190508181036000830152613932816138f6565b9050919050565b7f4e487b7100000000000000000000000000000000000000000000000000000000600052601260045260246000fd5b600061397382612cce565b915061397e83612cce565b92508261398e5761398d613939565b5b828204905092915050565b60006139a482612cce565b91506139af83612cce565b9250826139bf576139be613939565b5b828206905092915050565b7f4461746520636f6e76657273696f6e206661696c656400000000000000000000600082015250565b6000613a00601683612ee8565b9150613a0b826139ca565b602082019050919050565b60006020820190508181036000830152613a2f816139f3565b9050919050565b7f54686520616d6f756e74206578636565647320796f757220616c6c6f77616e6360008201527f652e000000000000000000000000000000000000000000000000000000000000602082015250565b6000613a92602283612ee8565b9150613a9d82613a36565b604082019050919050565b60006020820190508181036000830152613ac181613a85565b9050919050565b7f4e6f7420656e6f7567682066756e647320696e20736d61727420636f6e74726160008201527f63742e0000000000000000000000000000000000000000000000000000000000602082015250565b6000613b24602383612ee8565b9150613b2f82613ac8565b604082019050919050565b60006020820190508181036000830152613b5381613b17565b9050919050565b7f4f776e61626c653a206e6577206f776e657220697320746865207a65726f206160008201527f6464726573730000000000000000000000000000000000000000000000000000602082015250565b6000613bb6602683612ee8565b9150613bc182613b5a565b604082019050919050565b60006020820190508181036000830152613be581613ba9565b9050919050565b7f41646420646179732066756e6374696f6e206661696c65640000000000000000600082015250565b6000613c22601883612ee8565b9150613c2d82613bec565b602082019050919050565b60006020820190508181036000830152613c5181613c15565b9050919050565b6000613c6382612cb5565b9150613c6e83612cb5565b9250817f7fffffffffffffffffffffffffffffffffffffffffffffffffffffffffffffff03831360008312151615613ca957613ca8613383565b5b817f8000000000000000000000000000000000000000000000000000000000000000038312600083121615613ce157613ce0613383565b5b828201905092915050565b6000613cf782612cb5565b9150613d0283612cb5565b9250827f7fffffffffffffffffffffffffffffffffffffffffffffffffffffffffffffff0482116000841360008413161615613d4157613d40613383565b5b817f80000000000000000000000000000000000000000000000000000000000000000583126000841260008413161615613d7e57613d7d613383565b5b827f80000000000000000000000000000000000000000000000000000000000000000582126000841360008412161615613dbb57613dba613383565b5b827f7fffffffffffffffffffffffffffffffffffffffffffffffffffffffffffffff0582126000841260008412161615613df857613df7613383565b5b828202905092915050565b6000613e0e82612cb5565b9150613e1983612cb5565b925082613e2957613e28613939565b5b600160000383147f800000000000000000000000000000000000000000000000000000000000000083141615613e6257613e61613383565b5b82820590509291505056fea2646970667358221220cfd1d837a2649db8f6b6c997e101a05e406f75da4f7f5eed4d103ae60c62916464736f6c63430008090033",
  "immutableReferences": {},
  "source": "pragma solidity 0.8.9;\r\nimport \"./AllowanceStructure.sol\";\r\n\r\ncontract SharedWallet is AllowanceStructure {\r\n    event BalanceChange(address indexed _ChangedBy, int _difference, uint _newBalance);\r\n    event PaymentOut(address indexed _beneficiary, uint _amount);\r\n    event PaymentIn(address indexed _from, uint _amount);\r\n\r\n      function PayOut(address payable _payee, uint _amount) public Permissions(_amount, _payee) {\r\n        require(_amount <= address(this).balance, \"Not enough funds in smart contract.\");\r\n       \r\n        // This section can allow the owner to transfer funds without affecting the recipient's allowance, but updates the allowance when a user calls the function.\r\n        //Since the owner can set the allowance at will this is not used for now.\r\n       //if(!TrueOwner()) {\r\n        //    UpdateAllowance(msg.sender, _amount);  \r\n         //   }\r\n         //else{...}\r\n         \r\n        UpdateAllowance(_payee, _amount);  \r\n        emit BalanceChange( _payee, _x - int(_amount), address(this).balance - _amount);\r\n        emit PaymentOut(_payee, _amount);\r\n        _payee.transfer(_amount);\r\n    }\r\n\r\n    //function _SetAllowance(address _payee, uint _amount) public onlyOwner {\r\n        //SetAllowance(_payee, _amount);\r\n    //}\r\n    \r\n    function renounceOwnership() public view override onlyOwner {\r\n        revert(\"Cannot renounce ownership\"); //This overrides the renounceOwnership function in Ownable.sol\r\n    }\r\n    \r\n    function ContractBalance() public view returns(uint) {\r\n        return address(this).balance;\r\n    }\r\n\r\n    function ViewAllowance(address _user) public view returns(uint) {\r\n        return allowance[_user]._allowance;\r\n    }\r\n\r\n    function ViewMyAllowance() public view returns(uint) {\r\n        return allowance[msg.sender]._allowance;\r\n    }\r\n\r\n    function rViewAllowance(address _user) public view returns(uint _year, uint _month, uint _day, uint _hour, uint _minute, uint _second) {\r\n        (_year, _month, _day, _hour, _minute, _second) = ts_to_dateTime(allowance[_user].initTime);\r\n        return(_year, _month, _day, _hour, _minute, _second);\r\n    }\r\n\r\n    //function ContractAddress() public view returns(address) {\r\n     //   return address(this);\r\n    //}\r\n    \r\n    receive() external payable {\r\n    emit BalanceChange(msg.sender, int(msg.value), address(this).balance);\r\n    emit PaymentIn(msg.sender, msg.value);\r\n    }\r\n}\r\n",
  "sourcePath": "C:\\Users\\nicba\\BN-Allowance-tst\\contracts\\SharedWallet.sol",
  "compiler": {
    "name": "solc",
    "version": "0.8.9+commit.e5eed63a.Emscripten.clang"
  },
  "schemaVersion": "3.4.6",
  "updatedAt": "2022-03-30T20:00:09.628Z",
  "devdoc": {
    "kind": "dev",
    "methods": {
      "owner()": {
        "details": "Returns the address of the current owner."
      },
      "renounceOwnership()": {
        "details": "Leaves the contract without owner. It will not be possible to call `onlyOwner` functions anymore. Can only be called by the current owner. NOTE: Renouncing ownership will leave the contract without an owner, thereby removing any functionality that is only available to the owner."
      },
      "transferOwnership(address)": {
        "details": "Transfers ownership of the contract to a new account (`newOwner`). Can only be called by the current owner."
      }
    },
    "version": 1
  },
  "userdoc": {
    "kind": "user",
    "methods": {},
    "version": 1
  }
}